:100000000C94AE000C9413080C9444080C946D08E6
:100010000C94A4080C94DB080C9422020C94CB00E2
:100020000C94CB000C94CB000C94CB000C94A9093D
:100030000C94CB000C94CB000C94CB000C94CB0014
:100040000C94CB000C94F10A0C94CB000C94CB00D4
:100050000C94CB000C94CB000C94CB000C94CB00F4
:100060000C94CB000C94CB00496E697469616C6987
:100070007A696E67207375636365737366756C2E3A
:1000800000496E697469616C697A6174696F6E2088
:100090006661696C656420666F72206E5246323408
:1000A0004C30312E20436865636B20636F6E6E6544
:1000B0006374696F6E73005374617274696E672044
:1000C0006E524632344C303120696E205472616E6B
:1000D000736D6974204D6F64652E2E2E005374610C
:1000E0007274696E67206E524632344C303120692A
:1000F0006E2052656365697665204D6F64652E2EAE
:100100002E004D6173746572205258205061796CD5
:100110006F6164206C656E67746820736574207409
:100120006F203A20004D617374657220545820503E
:1001300061796C6F6164206C656E677468207365AB
:100140007420746F203A2000446F6E6500506F7702
:100150006572696E67206F6E2E2E2E0011241FBEF1
:10016000CFEFD8E0DEBFCDBF11E0A0E0B1E0E8E71F
:10017000F7E102C005900D92A438B107D9F722E04B
:10018000A4E8B1E001C01D92A734B207E1F70E94D4
:100190004C0A0C94BA0B0C94000010926400089561
:1001A000809384010895249884B18C6284B92A9A3A
:1001B0008CB582658CBD089584B1837D84B9249A01
:1001C0008CB58F7E8CBD8CB580648CBD08958823E2
:1001D00021F08CB580688CBD08958CB58F778CBD6F
:1001E00008958EBD0DB407FEFDCF8EB508957093B2
:1001F00089006093880010928000877088608093E7
:10020000810082E080936F00789408958130E9F056
:1002100018F0823099F10895442359F025B181E016
:1002200090E002C0880F991F6A95E2F7822B85B98A
:10023000089525B181E090E002C0880F991F6A956A
:10024000E2F78095822385B90895442359F028B1B7
:1002500081E090E002C0880F991F6A95E2F7822B37
:1002600088B9089528B181E090E002C0880F991FF5
:100270006A95E2F78095822388B90895442359F05E
:100280002BB181E090E002C0880F991F6A95E2F7D8
:10029000822B8BB908952BB181E090E002C0880FCA
:1002A000991F6A95E2F7809582238BB90895813072
:1002B000E9F018F0823099F10895442359F024B1FF
:1002C00081E090E002C0880F991F6A95E2F7822BC7
:1002D00084B9089524B181E090E002C0880F991F8D
:1002E0006A95E2F78095822384B90895442359F0F2
:1002F00027B181E090E002C0880F991F6A95E2F76C
:10030000822B87B9089527B181E090E002C0880F61
:10031000991F6A95E2F78095822387B9089544234F
:1003200059F02AB181E090E002C0880F991F6A95C8
:10033000E2F7822B8AB908952AB181E090E002C0E9
:10034000880F991F6A95E2F7809582238AB90895EC
:10035000813069F018F0823099F01BC083B190E0D1
:1003600002C0959587956A95E2F78170089586B1E8
:1003700090E002C0959587956A95E2F7817008959F
:1003800089B190E002C0959587956A95E2F78170F2
:10039000089580E008959093C5008093C40088E19B
:1003A0008093C1008EE08093C2000895E0ECF0E0FD
:1003B000908195FFFDCF8093C6000895209187011D
:1003C000309188014091890150918A0160918B019F
:1003D00070918C0180918D0190918E0108952091F2
:1003E0008701309188014091890150918A01609183
:1003F0008B0170918C0180918D0190918E01A1E013
:100400000E94990B209387013093880140938901C2
:1004100050938A0160938B0170938C0180938D01BE
:1004200090938E018091850190918601892B49F0EE
:100430008091850190918601019790938601809328
:10044000850108951F920F920FB60F9211248F937A
:1004500084B78E7F84BF8F910F900FBE0F901F9037
:1004600018950F93E0EDF1E0A8EDB1E0219308E0DD
:100470000E947D0BEA17FB07C9F780ED91E00F9111
:1004800008958A3010F0895C0895805D08951F9367
:10049000CF93DF93182F82958F700E944102C8ED91
:1004A000D1E08883812F8F708093DD010E9441020B
:1004B00089831A82CE01DF91CF911F9108952F92E7
:1004C0003F924F925F926F927F928F929F92AF92E4
:1004D000BF92CF92DF92EF92FF920F931F93CF9331
:1004E000DF93CDB7DEB7C756D1090FB6F894DEBF9C
:1004F0000FBECDBFA6962FAFA697832E742E652E66
:10050000562E472E382E292EA0E00E94AE0B21F445
:1005100080E30E94D60152C0912C81E090E08C0FC4
:100520009D1F890D911DA8969FAF8EAFA8970F2E86
:10053000FAE0AF2EF02DB12CC12CD12CE12CF12CF6
:1005400000E010E0A6962FADA697382D472D562D2A
:10055000652D742D832D922D0E94030B205DA8968E
:10056000EEADFFADA8972083A6962FADA697382DA8
:10057000472D562D652D742D832D922D0E94050B30
:10058000A6962FAFA697832E742E652E562E472E35
:10059000382E292E9394A0E00E94AE0B09F0BDCF17
:1005A000992061F09A94E1E0F0E0EC0FFD1FE90D75
:1005B000F11D80810E94D6019110F4CF80E20E944B
:1005C000D601C959DF4F0FB6F894DEBF0FBECDBFBD
:1005D000DF91CF911F910F91FF90EF90DF90CF901F
:1005E000BF90AF909F908F907F906F905F904F9053
:1005F0003F902F900895CF93DF93EC018DE00E9400
:10060000D6018AE00E94D601FE018491882349F038
:10061000FE0184910E94D6012196FE0184918111F0
:10062000F7CFDF91CF910895CF93DF93EC018DE069
:100630000E94D6018AE00E94D6018881882331F089
:1006400021960E94D60189918111FBCFDF91CF9134
:100650000895CF93DF93EC018881882331F02196B0
:100660000E94D60189918111FBCFDF91CF9108952E
:10067000FF920F931F93CF93DF93F62E062F10E078
:1006800001501109080F191F80E30E94D60188E765
:100690000E94D601FF2081F0E80121968FEF8F0D97
:1006A000081B11098A918093CF010E9447020E9482
:1006B0002903C017D107B1F7EF2DF0E0E157FE4F46
:1006C00012828FE891E0DF91CF911F910F91FF90FF
:1006D00008950F930E943102602F0E9438030E94F8
:1006E00029030F910895419880E50E94F10083E766
:1006F0000E94F100419A0895862F41980E94F100CE
:10070000419A0895AF92BF92CF92DF92EF92FF92FB
:100710000F931F93CF93DF93862FA42E41980E94AF
:10072000F100AA2021F1D0E0C0E0B12CC12CD12CE5
:10073000E12CF12C00E010E080E00E94F1002C2F71
:10074000282B3B2D4C2D5D2D6E2D7F2D802F912F35
:1007500008E00E94620BC22FB32EC42ED52EE62EC7
:10076000F72E082F192FDF5FDA11E6CF08C0C0E09F
:10077000B12CC12CD12CE12CF12C00E010E0419ADD
:100780002C2F3B2D4C2D5D2D6E2D7F2D802F912FED
:1007900008E00E947D0BDF91CF911F910F91FF9098
:1007A000EF90DF90CF90BF90AF9008950F93CF93CD
:1007B000DF93EC0180E091E00E94140341E060E0EF
:1007C000CE010E94820301E00E9469038AE091E069
:1007D0000E94290341E067E1CE010E9482030E944A
:1007E00069038FE091E00E9429036FEFCE010E9420
:1007F0007C03282F30E040E050E060E070E080E0D3
:1008000090E00E94690389E191E00E94290341E0A0
:1008100068E0CE010E9482030E945F0287E291E0BD
:100820000E94290341E06DE1CE010E9482030E94F3
:100830005F0282E391E00E9429030E94DE010E9490
:100840005F02DF91CF910F9108959F92AF92BF9277
:10085000CF92DF92EF92FF920F931F93CF93DF938C
:10086000C22FD32FB42EA52E4198862F80620E94CE
:10087000F100982ECC20D1F0D12C8E2D0E94F100C9
:100880002E2D3F2D402F512F6C2F7D2F8B2D9A2DEC
:1008900008E00E947D0BE22EF32E042F152FC62FA9
:1008A000D72FB82EA92ED394DC10E7CF419A892DEB
:1008B000DF91CF911F910F91FF90EF90DF90CF903C
:1008C000BF90AF909F900895CF92EF92FF920F93B9
:1008D0001F93CF93DF93EC01E62E41E060E00E948E
:1008E00082032D7FEE0CE22AEB82CC24C394F12C00
:1008F00000E010E020E030E040E050E060E0CE01B9
:100900000E942504DF91CF911F910F91FF90EF90EE
:10091000CF900895AF92BF92CF92DF92EF92FF9265
:100920000F931F93CF93DF93EC01D62E41E060E04D
:100930000E9482032E7FE22EED28EB82CC24C3940A
:10094000F12C00E010E020E030E040E050E060E01A
:10095000CE010E942504DD2029F08DED90E00E945B
:10096000FB0204C087EB90E00E94FB0241E060E0E4
:10097000CE010E948203AB80B12CC12CD12CE12C82
:10098000F12C00E010E00E94A50B29F081E890E036
:100990000E94FB0204C088E690E00E94FB02DF9107
:1009A000CF911F910F91FF90EF90DF90CF90BF906C
:1009B000AF900895CF92EF92FF920F931F93CF9332
:1009C000DF93EC01E62E41E06DE10E9482032D7F72
:1009D000EE0CE22AEB82CC24C394F12C00E010E070
:1009E00020E030E040E050E06DE1CE010E942504BF
:1009F000DF91CF911F910F91FF90EF90CF900895CD
:100A0000CF92EF92FF920F931F93CF93DF93EC015E
:100A1000E62E41E06DE10E9482032B7FEE0CEE0C8E
:100A2000E22AEB82CC24C394F12C00E010E020E019
:100A300030E040E050E06DE1CE010E942504DF91FE
:100A4000CF911F910F91FF90EF90CF900895AF92AB
:100A5000BF92CF92EF92FF920F931F93CF93DF93AA
:100A6000663048F5C42FD62F5C0141E06CE10E944E
:100A7000820381E090E00D2E02C0880F991F0A9436
:100A8000E2F7809582234C2F50E002C0440F551F9F
:100A9000DA95E2F7E82EE42AF501E382CC24C39448
:100AA000F12C00E010E020E030E040E050E06CE1AC
:100AB000C5010E942504DF91CF911F910F91FF90F6
:100AC000EF90CF90BF90AF900895CF92EF92FF92AA
:100AD0000F931F93CF93DF93EC01E62E41E066E086
:100AE0000E948203277FEE0CEE0CEE0CE22AEB82D2
:100AF000CC24C394F12C00E010E020E030E040E092
:100B000050E066E0CE010E942504DF91CF911F9155
:100B10000F91FF90EF90CF900895CF92EF92FF92B8
:100B20000F931F930F2EF5E0CF2EF02DE02EF12E18
:100B3000022F132F242F352F462F572F60E10E94AD
:100B400025041F910F91FF90EF90CF900895CF92C1
:100B5000EF92FF920F931F930F2EF5E0CF2EF02D03
:100B6000E02EF12E022F132F242F352F462F572F33
:100B70006AE00E9425041F910F91FF90EF90CF90A3
:100B80000895CF92EF92FF920F931F93CF93DF932D
:100B9000EC01399A389A409A579A1A8285E291E084
:100BA0000E94FB02288130E040E050E060E070E00D
:100BB00080E090E00E945F0282E091E00E94FB02F0
:100BC000298130E040E050E060E070E080E090E0BB
:100BD0000E945F0205EB1AEB2AEB3AEB4AEB50E07E
:100BE00060E070E0CE010E948D052AEB3AEB4AEB03
:100BF00050E060E070E0CE010E94A70561E0CE0108
:100C00000E9465056F81CE010E948A048885882331
:100C100099F0CE010E94730361E0CE010E940005AD
:100C200041E060E0CE010E94270561E0CE010E9414
:100C3000DA04888581110EC0E880CC24C394F12C9D
:100C400000E010E020E030E040E050E061E1CE0163
:100C50000E94250461E0CE010E946404DF91CF91DF
:100C60001F910F91FF90EF90CF9008953FEF50E7C5
:100C700072E0315050407040E1F700C00000FC01CC
:100C8000278321E02087608341830E94C105089566
:100C900008951092F00188E496E09093DF0180932C
:100CA000DE0108959093DF018093DE010895CF93D4
:100CB000DF93EC011BA21CA20E945909CE010E94E5
:100CC00039098C8D811104C08091EA018823C9F013
:100CD0008091EB01882361F081E00E94D000E091D7
:100CE000E001F091E101309761F08EA1099509C012
:100CF00081E00E94D000EE85FF85309711F08EA133
:100D00000995DF91CF910895CF93DF939091F001F2
:100D10009923C1F0D82FC0E0EC2FF0E0EE0FFF1FB9
:100D2000EF50FE4F0190F081E02D91A59D1305C07D
:100D3000309719F0CF010E945706CF5F9091F001D4
:100D4000C91750F3DF91CF91089583B1ECEEF1E034
:100D5000808386B1818389B182830895FC0180A557
:100D6000813049F018F0823059F00EC08091EC01CA
:100D70008093EF0109C08091ED018093EF0104C0E1
:100D80008091EE018093EF01828D81A32091EF018C
:100D900030E007A002C0359527950A94E2F721704C
:100DA000228F0895CF93DF93EC010E94AE068A8DC7
:100DB000811126C089A1882309F484C0E88DF98DAA
:100DC000309711F08EA109958BA1811108C022EFF7
:100DD00037E040E06CEB72E0CE010E942B0981E02D
:100DE0008AA38BA1882341F068E572E0CE010E94BE
:100DF000460981E08CA31BA28A8D882309F462C076
:100E000089A181115FC0EE89FF89309711F08EA111
:100E100009958CA1811106C0CE010E943E099DA7B3
:100E20008CA705C0CE010E9451099DA78CA7CE01B9
:100E30000E945909CE010E9439091AA28CA59DA5CC
:100E40000B978D34924098F58CA1811117C08DA11C
:100E500081112FC08F8D882359F024E836E040E0BF
:100E600064E670E0CE010E942B0981E08BA303C0F1
:100E7000CE010E9457068CA1882309F18091EB01D5
:100E8000882361F081E00E94D000E091E601F091BA
:100E9000E701309761F08EA1099509C081E00E94B9
:100EA000D000EA89FB89309711F08EA109958DA1B8
:100EB00081111DA28CA1882329F01CA203C08DA141
:100EC0008111F7CFDF91CF910895CF938091F001F9
:100ED000882391F0C0E0EC2FF0E0EE0FFF1FEF5001
:100EE000FE4F80819181009711F00E94D206CF5F62
:100EF0008091F001C81778F3CF910895CF93DF93D5
:100F0000EC0118A21BA21CA28DA1882389F1CE019D
:100F10000E94A506CE010E94AE068A8D811128C0CE
:100F20008E8D811104C08091E801882309F122EFA0
:100F300037E040E066E470E0CE010E942B0980912A
:100F4000EB01882361F081E00E94D000E091E20192
:100F5000F091E301309761F08EA1099509C081E01D
:100F60000E94D000EC89FD89309711F08EA109957F
:100F70008AA18823A1F1CE010E94A506CE010E947C
:100F8000AE068A8D81112BC08D8D811104C0809198
:100F9000E901882321F11AA281E08DA322EF37E035
:100FA00040E062E370E0CE010E942B098091EB01EA
:100FB000882361F081E00E94D000E091E401F0918B
:100FC000E501309761F08EA1099509C081E00E948A
:100FD000D000E889F989309711F08EA10995DF9149
:100FE000CF910895CF93DF939091F0019923C1F0B1
:100FF000D82FC0E0EC2FF0E0EE0FFF1FEF50FE4FB8
:101000000190F081E02D91A59D1305C0309719F056
:10101000CF010E947E07CF5F9091F001C91750F376
:10102000DF91CF9108951F920F920FB60F92112466
:101030002F933F934F935F936F937F938F939F93E0
:10104000AF93BF93EF93FF9383B1ECEEF1E0808316
:1010500086B1818389B182830E94CD0080E00E94A5
:10106000D0000E946507FF91EF91BF91AF919F91D2
:101070008F917F916F915F914F913F912F910F9041
:101080000FBE0F901F9018951F920F920FB60F92E0
:1010900011242F933F934F935F936F937F938F937D
:1010A0009F93AF93BF93EF93FF930E94CD0080E097
:1010B0000E94D0000E946507FF91EF91BF91AF9110
:1010C0009F918F917F916F915F914F913F912F9160
:1010D0000F900FBE0F901F9018951F920F920FB692
:1010E0000F9211242F933F934F935F936F937F93AE
:1010F0008F939F93AF93BF93EF93FF93E091DE01A4
:10110000F091DF0180E0099583B1ECEEF1E080839E
:1011100086B1818389B182830E94CD0080E00E94E4
:10112000D0000E946507FF91EF91BF91AF919F9111
:101130008F917F916F915F914F913F912F910F9080
:101140000FBE0F901F9018951F920F920FB60F921F
:1011500011242F933F934F935F936F937F938F93BC
:101160009F93AF93BF93EF93FF93E091DE01F091D4
:10117000DF0181E0099583B1ECEEF1E0808386B177
:10118000818389B182830E94CD0080E00E94D000DB
:101190000E946507FF91EF91BF91AF919F918F9151
:1011A0007F916F915F914F913F912F910F900FBE63
:1011B0000F901F9018951F920F920FB60F92112447
:1011C0002F933F934F935F936F937F938F939F934F
:1011D000AF93BF93EF93FF93E091DE01F091DF01B6
:1011E00082E0099583B1ECEEF1E0808386B18183E2
:1011F00089B182830E94CD0080E00E94D0000E94CD
:101200006507FF91EF91BF91AF919F918F917F9172
:101210006F915F914F913F912F910F900FBE0F9063
:101220001F90189560E47FE181E00E94F700109222
:10123000FD010895DC019091FD01E92FF0E0EE0F32
:10124000FF1FEA5FFD4FB183A08315969C939F5FBC
:101250009093FD010895FC01718360837383628321
:101260003587248781E08387448380E00E94D00013
:101270000895FC011386118210820895FC01828179
:10128000938120813181821B930B0895FC01778328
:10129000668381E082877187608780E00E94D0004A
:1012A0000895FC018085918526813781821B930BEF
:1012B0000895FC011782168212860895CF93DF935A
:1012C000EC018B858823E1F088819981009729F0D2
:1012D000019799838883892B99F48C81813029F433
:1012E0008A819B819983888305C0811103C01B86F5
:1012F00019821882EC85FD85309711F08D81099552
:101300008A85882351F08E819F81009729F001976B
:101310009F838E83892B09F41A86DF91CF910895DC
:10132000CF938091FD01882391F0C0E0EC2FF0E095
:10133000EE0FFF1FEA5FFD4F80819181009711F052
:101340000E945E09CF5F8091FD01C81778F3CF91AD
:1013500008951F920F920FB60F9211242F933F936F
:101360004F935F936F937F938F939F93AF93BF93AD
:10137000EF93FF930E94EF012091FE013091FF0156
:1013800040910002509101026091020270910302AB
:101390008091040290910502A1E00E94990B209394
:1013A000FE013093FF0140930002509301026093CD
:1013B00002027093030280930402909305020E943C
:1013C0009009FF91EF91BF91AF919F918F917F9184
:1013D0006F915F914F913F912F910F900FBE0F90A2
:1013E0001F90189581E0809344020895CF93C82FF1
:1013F0008DE591E00E941403C13049F460E081E082
:101400000E94A801482F62E081E00E940601CF916E
:10141000089580E090E00E94CB0160ED77E082E0EB
:101420000E94F70041E062E081E00E94570141E044
:1014300062E082E00E94570141E063E082E00E94A6
:10144000570140E064E082E00E94570141E065E01E
:1014500082E00E94570140E062E082E00E940601C3
:1014600040E063E082E00E94060140E064E082E048
:101470000E94060140E065E082E00E94060140E033
:1014800062E081E00E94060140E060E081E00E94AD
:1014900057010E94D3000895CF93DF93CDB7DEB7F5
:1014A00067970FB6F894DEBF0FBECDBF0E94090A42
:1014B0002FEF84E39CE0215080409040E1F700C092
:1014C0000000389A40988DE491E00E94FB0220E0F1
:1014D00041E061E0CE010F960E9436060E94DC00DA
:1014E00081E00E94E70078940E94490686EF99E027
:1014F0000E9452060E941209CE0101960E941A090A
:1015000022EF39E041E064E670E0CE0101960E94EE
:101510002B0988E491E00E94FB0280914502882318
:1015200009F449C010924502809146028A3A61F15D
:1015300060914602607F70E0759567957595679537
:1015400075956795759567956093430280914602FE
:101550008F708093420241E0811101C040E06F5FD3
:1015600082E00E9406018FE691E00E941403209120
:10157000460201E030E040E050E060E070E080E0F2
:1015800090E00E94690317C080E00E94E7000E947B
:10159000D30041E067E1CE010F960E94820301E093
:1015A0000E94690382E891E00E9414030E94DC001B
:1015B00081E00E94E70080E00E94E7000E94D300E3
:1015C00080914402882309F4A8CF1092440280E05D
:1015D0000E94E7000E94D300CE010F960E94D6031E
:1015E0009CCF1F920F920FB60F9211248F938EB53E
:1015F0008093460281E0809345028F910F900FBE49
:101600000F901F901895689401C0E8948F929F9254
:10161000CF93DF930E94110BDF91CF919F908F901A
:10162000089588249924F401E401B0E49F93AA2743
:101630009A158B049C04ED05FE05CF05D007A10784
:1016400098F4AD2FDC2FCF2FFE2FE92D982C892E6B
:10165000982F872F762F652F542F432F322F222735
:10166000B85031F7BF9127C01B2EBF91BB27220F67
:10167000331F441F551F661F771F881F991F881C23
:10168000991CEE1FFF1FCC1FDD1FAA1FBB1F8A1452
:101690009B04EC05FD05CE05DF05A007B10748F06A
:1016A0008A189B08EC09FD09CE09DF09A00BB10BD4
:1016B00021601A94E1F62EF49401AF01BE01CD0130
:1016C000000C08950F93083090F0982F872F762FF5
:1016D000652F542F432F322F22270850F4CF220F8B
:1016E000331F441F551F661F771F881F991F0A95B8
:1016F000B2F70F91089597FB10F8169400080F9316
:10170000083098F00850232F342F452F562F672F7D
:10171000782F892F902DF4CF0594979587957795FD
:10172000679557954795379527950A95AAF70F918D
:1017300008950024A7FD00942A0F301D401D501D60
:10174000601D701D801D901D08952A153B054C05D8
:101750005D056E057F058007910708950024A7FDAC
:1017600000942A1730054005500560057005800576
:0817700090050895F894FFCFE5
:1017780020436F6E6669673A2000204649464F202D
:101788005374617475733A2000205458204F627363
:10179800657276653A200020466561747572653A0F
:1017A8002000204D696C6C69733A200053706565A0
:1017B80064203D2000422F7320002044726F707314
:1017C800203D20005061636B657473200050696E82
:1017D800207374617465206368616E676564004393
:1017E8006F6D6D616E642072656365697665643AD4
:0417F8002000540079
:00000001FF
