:100000000C94AE000C94EB080C941C090C9445095C
:100010000C9476090C94A7090C9428020C94CB003C
:100020000C94CB000C94CB000C94CB000C94730A72
:100030000C94CB000C94CB000C94CB000C94CB0014
:100040000C94CB000C94CB000C94CB000C94CB0004
:100050000C94CB000C94CB000C94CB000C94CB00F4
:100060000C94CB000C94CB00496E697469616C6987
:100070007A696E67207375636365737366756C2E3A
:1000800000496E697469616C697A6174696F6E2088
:100090006661696C656420666F72206E5246323408
:1000A0004C30312E20436865636B20636F6E6E6544
:1000B0006374696F6E73005374617274696E672044
:1000C0006E524632344C303120696E205472616E6B
:1000D000736D6974204D6F64652E2E2E005374610C
:1000E0007274696E67206E524632344C303120692A
:1000F0006E2052656365697665204D6F64652E2EAE
:100100002E004D6173746572205258205061796CD5
:100110006F6164206C656E67746820736574207409
:100120006F203A20004D617374657220545820503E
:1001300061796C6F6164206C656E677468207365AB
:100140007420746F203A2000446F6E6500506F7702
:100150006572696E67206F6E2E2E2E0011241FBEF1
:10016000CFEFD8E0DEBFCDBF11E0A0E0B1E0E4E129
:10017000F9E102C005900D92A23AB107D9F722E049
:10018000A2EAB1E001C01D92A337B207E1F70E94D5
:10019000D80A0C94880C0C9400008FEA80936400B9
:1001A00008951092640008958093A20108958091AB
:1001B000A2010895249884B18C6284B92A9A8CB5DE
:1001C00082658CBD08958EBD0DB407FEFDCF8EB542
:1001D0000895709389006093880010928000877062
:1001E00088608093810082E080936F007894089506
:1001F0008130E9F018F0823099F10895442359F0E4
:1002000025B181E090E002C0880F991F6A95E2F75E
:10021000822B85B9089525B181E090E002C0880F56
:10022000991F6A95E2F78095822385B90895442342
:1002300059F028B181E090E002C0880F991F6A95BB
:10024000E2F7822B88B9089528B181E090E002C0DE
:10025000880F991F6A95E2F78095822388B90895DF
:10026000442359F02BB181E090E002C0880F991F20
:100270006A95E2F7822B8BB908952BB181E090E06B
:1002800002C0880F991F6A95E2F7809582238BB987
:1002900008958130E9F018F0823099F108954423EF
:1002A00059F024B181E090E002C0880F991F6A954F
:1002B000E2F7822B84B9089524B181E090E002C076
:1002C000880F991F6A95E2F78095822384B9089573
:1002D000442359F027B181E090E002C0880F991FB4
:1002E0006A95E2F7822B87B9089527B181E090E003
:1002F00002C0880F991F6A95E2F78095822387B91B
:100300000895442359F02AB181E090E002C0880F9B
:10031000991F6A95E2F7822B8AB908952AB181E084
:1003200090E002C0880F991F6A95E2F780958223BA
:100330008AB90895E8E6F0E0908121E030E0082EE7
:1003400002C0220F331F0A94E2F7292B2083813049
:1003500081F018F08230C9F00895EBE6F0E080817A
:1003600050E002C0440F551F6A95E2F7482B4083C6
:100370000895ECE6F0E0808150E002C0440F551F84
:100380006A95E2F7482B40830895EDE6F0E080811E
:1003900050E002C0440F551F6A95E2F7482B408396
:1003A00008959093C5008093C40088E18093C100B4
:1003B0008EE08093C2000895E0ECF0E0908195FF1C
:1003C000FDCF8093C60008952091A5013091A6012C
:1003D0004091A7015091A8016091A9017091AA01D3
:1003E0008091AB019091AC0108952091A5013091CD
:1003F000A6014091A7015091A8016091A9017091B7
:10040000AA018091AB019091AC01A1E00E94670C20
:100410002093A5013093A6014093A7015093A80112
:100420006093A9017093AA018093AB019093AC01F2
:100430008091A3019091A401892B49F08091A3019F
:100440009091A40101979093A4018093A301089532
:100450001F920F920FB60F9211248F9384B78E7F45
:1004600084BF8F910F900FBE0F901F9018950F9320
:10047000EEEEF1E0A6EFB1E0219308E00E944B0C14
:10048000EA17FB07C9F78EEE91E00F9108958A30C5
:1004900010F0895C0895805D08951F93CF93DF93DA
:1004A000182F82958F700E944702C6EFD1E0888393
:1004B000812F8F708093FB010E94470289831A82EB
:1004C000CE01DF91CF911F9108952F923F924F92CD
:1004D0005F926F927F928F929F92AF92BF92CF92D4
:1004E000DF92EF92FF920F931F93CF93DF93CDB7DD
:1004F000DEB7C756D1090FB6F894DEBF0FBECDBF29
:10050000A6962FAFA697832E742E652E562E472EB5
:10051000382E292EA0E00E947C0C21F480E30E945A
:10052000DC0152C0912C81E090E08C0F9D1F890D61
:10053000911DA8969FAF8EAFA8970F2EFAE0AF2E11
:10054000F02DB12CC12CD12CE12CF12C00E010E0CD
:10055000A6962FADA697382D472D562D652D742DB7
:10056000832D922D0E94D10B205DA896EEADFFAD9C
:10057000A8972083A6962FADA697382D472D562DE8
:10058000652D742D832D922D0E94D30BA6962FAF2F
:10059000A697832E742E652E562E472E382E292E82
:1005A0009394A0E00E947C0C09F0BDCF992061F0EB
:1005B0009A94E1E0F0E0EC0FFD1FE90DF11D808160
:1005C0000E94DC019110F4CF80E20E94DC01C95945
:1005D000DF4F0FB6F894DEBF0FBECDBFDF91CF91D6
:1005E0001F910F91FF90EF90DF90CF90BF90AF9051
:1005F0009F908F907F906F905F904F903F902F9043
:100600000895CF93DF93EC018DE00E94DC018AE036
:100610000E94DC01FE018491882349F0FE0184914F
:100620000E94DC012196FE0184918111F7CFDF91B8
:10063000CF910895CF93DF93EC018DE00E94DC0110
:100640008AE00E94DC018881882331F021960E9493
:10065000DC0189918111FBCFDF91CF910895CF9378
:10066000DF93EC018881882331F021960E94DC0120
:1006700089918111FBCFDF91CF910895FF920F9364
:100680001F93CF93DF93F62E062F10E00150110930
:10069000080F191F80E30E94DC0188E70E94DC013B
:1006A000FF2081F0E80121968FEF8F0D081B1109C3
:1006B0008A918093ED010E944D020E942F03C01782
:1006C000D107B1F7EF2DF0E0E355FE4F12828DEA2E
:1006D00091E0DF91CF911F910F91FF9008950F93BB
:1006E0000E943702602F0E943E030E942F030F9149
:1006F0000895419880E50E94E30083E70E94E300AB
:10070000419A0895862F41980E94E300419A0895E6
:10071000AF92BF92CF92DF92EF92FF920F931F930F
:10072000CF93DF93862FA42E41980E94E300AA2046
:1007300021F1D0E0C0E0B12CC12CD12CE12CF12C66
:1007400000E010E080E00E94E3002C2F282B3B2DDE
:100750004C2D5D2D6E2D7F2D802F912F08E00E9456
:10076000300CC22FB32EC42ED52EE62EF72E082F16
:10077000192FDF5FDA11E6CF08C0C0E0B12CC12C21
:10078000D12CE12CF12C00E010E0419A2C2F3B2DD4
:100790004C2D5D2D6E2D7F2D802F912F08E00E9416
:1007A0004B0CDF91CF911F910F91FF90EF90DF9055
:1007B000CF90BF90AF9008950F93CF93DF93EC014C
:1007C00080E091E00E941A0341E060E0CE010E94C7
:1007D000880301E00E946F038AE091E00E942F03EA
:1007E00041E067E1CE010E9488030E946F038FE021
:1007F00091E00E942F036FEFCE010E948203282F09
:1008000030E040E050E060E070E080E090E00E9486
:100810006F0389E191E00E942F0341E068E0CE017F
:100820000E9488030E94650287E291E00E942F03E4
:1008300041E06DE1CE010E9488030E94650282E3DF
:1008400091E00E942F030E94E4010E946502DF9163
:10085000CF910F91089541E067E10E948803822FB4
:100860008072089541E067E00E948803822F8072C1
:1008700008959F92AF92BF92CF92DF92EF92FF9234
:100880000F931F93CF93DF93C22FD32FB42EA52E98
:100890004198862F80620E94E300982ECC20D1F0F0
:1008A000D12C8E2D0E94E3002E2D3F2D402F512F55
:1008B0006C2F7D2F8B2D9A2D08E00E944B0CE22E81
:1008C000F32E042F152FC62FD72FB82EA92ED39471
:1008D000DC10E7CF419A892DDF91CF911F910F91C5
:1008E000FF90EF90DF90CF90BF90AF909F900895D2
:1008F000CF92EF92FF920F931F93CF93DF93EC0170
:10090000E62E41E060E00E9488032D7FEE0CE22A93
:10091000EB82CC24C394F12C00E010E020E030E026
:1009200040E050E060E0CE010E943904DF91CF91B9
:100930001F910F91FF90EF90CF900895AF92BF92CB
:10094000CF92DF92EF92FF920F931F93CF93DF939B
:10095000EC01D62E41E060E00E9488032B8301E089
:1009600030E040E050E060E070E080E090E00E9425
:100970006F038B818E7FED2CE82AEB82CC24C3940D
:10098000F12C00E010E020E030E040E050E060E0DA
:10099000CE010E943904DD2029F08DED90E00E9407
:1009A000010304C087EB90E00E94010341E060E096
:1009B000CE010E948803AB80B12CC12CD12CE12C3C
:1009C000F12C00E010E00E94730C29F081E890E027
:1009D0000E94010304C088E690E00E940103DF91B9
:1009E000CF911F910F91FF90EF90DF90CF90BF902C
:1009F000AF900895CF92EF92FF920F931F93CF93F2
:100A0000DF93EC01E62E41E06DE10E9488032D7F2B
:100A1000EE0CE22AEB82CC24C394F12C00E010E02F
:100A200020E030E040E050E06DE1CE010E9439046A
:100A3000DF91CF911F910F91FF90EF90CF9008958C
:100A4000CF92EF92FF920F931F93CF93DF93EC011E
:100A5000E62E41E06DE10E9488032B7FEE0CEE0C48
:100A6000E22AEB82CC24C394F12C00E010E020E0D9
:100A700030E040E050E06DE1CE010E943904DF91AA
:100A8000CF911F910F91FF90EF90CF900895AF926B
:100A9000BF92CF92EF92FF920F931F93CF93DF936A
:100AA000663048F5C42FD62F5C0141E06CE10E940E
:100AB000880381E090E00D2E02C0880F991F0A94F0
:100AC000E2F7809582234C2F50E002C0440F551F5F
:100AD000DA95E2F7E82EE42AF501E382CC24C39408
:100AE000F12C00E010E020E030E040E050E06CE16C
:100AF000C5010E943904DF91CF911F910F91FF90A2
:100B0000EF90CF90BF90AF900895CF92EF92FF9269
:100B10000F931F93CC24C3946894EE24E5F8F12C32
:100B200000E010E020E030E040E050E067E00E94AC
:100B300039041F910F91FF90EF90CF900895CF92BD
:100B4000EF92FF920F931F93CF93DF93EC01E62E6A
:100B500041E066E00E948803277FEE0CEE0CEE0C6D
:100B6000E22AEB82CC24C394F12C00E010E020E0D8
:100B700030E040E050E066E0CE010E943904DF91B1
:100B8000CF911F910F91FF90EF90CF900895AF926A
:100B9000BF92CF92EF92FF920F931F93CF93DF9369
:100BA0001F92CDB7DEB75C0169836FEF0E948203AD
:100BB0008093FC0180FD09C0419880EA0E94E30017
:100BC00089810E94E300419A12C084FF10C0CC24A6
:100BD000C3946894EE24E4F8F12C00E010E020E0E7
:100BE00030E040E050E067E0C5010E9439040F901A
:100BF000DF91CF911F910F91FF90EF90CF90BF9019
:100C0000AF900895CF92EF92FF920F931F930F2E04
:100C1000F5E0CF2EF02DE02EF12E022F132F242FF2
:100C2000352F462F572F60E10E9439041F910F91F5
:100C3000FF90EF90CF900895CF92EF92FF920F9395
:100C40001F930F2EF5E0CF2EF02DE02EF12E022F68
:100C5000132F242F352F462F572F6AE00E94390477
:100C60001F910F91FF90EF90CF900895CF92EF9248
:100C7000FF920F931F93CF93DF93EC01399A389A29
:100C8000409A579A1A8285E291E00E9401032881D6
:100C900030E040E050E060E070E080E090E00E94F2
:100CA000650282E091E00E940103298130E040E08A
:100CB00050E060E070E080E090E00E94650205EBAB
:100CC0001AEB2AEB3AEB4AEB50E060E070E0CE0121
:100CD0000E9402062AEB3AEB4AEB50E060E070E03B
:100CE000CE010E941C0661E0CE010E949F056F812B
:100CF000CE010E949E048885882399F0CE010E942F
:100D0000790361E0CE010E94200541E060E0CE0160
:100D10000E94470561E0CE010E94FA048885811196
:100D20000EC0E880CC24C394F12C00E010E020E059
:100D300030E040E050E061E1CE010E94390461E022
:100D4000CE010E947804DF91CF911F910F91FF9007
:100D5000EF90CF9008953FEF50E772E03150504050
:100D60007040E1F700C00000FC01278321E02087EC
:100D7000608341830E943606089561EE0E948203DB
:100D8000089508951092100281EC96E09093FE0170
:100D90008093FD010895FC017787668770930002B8
:100DA0006093FF0121E0248F0895CF93DF93EC013E
:100DB0001BA21CA20E94200ACE010E94000A8C8D58
:100DC000811104C080910A028823C9F080910B022E
:100DD000882361F081E00E94D400E091FF01F0914E
:100DE0000002309761F08EA1099509C081E00E9450
:100DF000D400EE85FF85309711F08EA10995DF9123
:100E0000CF910895CF93DF93909110029923C1F071
:100E1000D82FC0E0EC2FF0E0EE0FFF1FEF5EFD4F8C
:100E20000190F081E02D91A59D1305C0309719F038
:100E3000CF010E94D506CF5F90911002C91750F3E1
:100E4000DF91CF91089580930B0280930A028093E3
:100E500009028093080280930702089583B1ECE0B1
:100E6000F2E0808386B1818389B182830895FC0199
:100E700080A5813049F018F0823059F00EC0809181
:100E80000C0280930F0209C080910D0280930F0223
:100E900004C080910E0280930F02828D81A3209165
:100EA0000F0230E007A002C0359527950A94E2F7BB
:100EB0002170228F0895EF92FF920F931F93CF938B
:100EC000DF93EC01F62EE42E89011F861E861B8A15
:100ED0001A8A198A188A1D8A1C8A1F8A1E8A198EE4
:100EE000188E0E94E109EFA2F8A640E06E2D8F2D2A
:100EF0000E94490141E06FA188A50E94F80041E0ED
:100F00006E2D8F2D0E949A0188A5813041F018F036
:100F1000823049F00BC083B180930F0207C086B1C5
:100F200080930F0203C089B180930F028091100259
:100F3000E82FF0E0EE0FFF1FEF5EFD4F11830083FF
:100F40008EA38F5F80931002CE010E942E07CE01E8
:100F50000E9437071F8ECE010E94700A89A7DF9179
:100F6000CF911F910F91FF90EF900895CF93DF9352
:100F7000EC010E9437078A8D811120C089A1882346
:100F800009F478C08BA1811108C02AEC38E040E058
:100F90006CEB72E0CE010E94F20981E08AA38BA182
:100FA000882341F068E572E0CE010E940D0A81E0DD
:100FB0008CA31BA28A8D882309F45CC089A18111AE
:100FC00059C08CA1811106C0CE010E94050A9DA7BF
:100FD0008CA705C0CE010E94180A9DA78CA7CE0140
:100FE0000E94200ACE010E94000A1AA28CA59DA58B
:100FF0000B978D34924098F58CA1811117C08DA16B
:1010000081112FC08F8D882359F022E037E040E016
:1010100064E670E0CE010E94F20981E08BA303C078
:10102000CE010E94D5068CA1882309F180910B0284
:10103000882361F081E00E94D400E0910502F091E4
:101040000602309761F08EA1099509C081E00E94E7
:10105000D400EA89FB89309711F08EA109958DA102
:1010600081111DA28CA1882329F01CA203C08DA18F
:101070008111F7CFDF91CF910895CF938091100226
:10108000882391F0C0E0EC2FF0E0EE0FFF1FEF5E41
:10109000FD4F80819181009711F00E94B607CF5FCC
:1010A00080911002C81778F3CF910895CF93DF9302
:1010B000EC0118A21BA21CA28DA1882389F1CE01EC
:1010C0000E942E07CE010E9437078A8D811128C009
:1010D0008E8D811104C080910702882309F12AECCA
:1010E00038E040E066E470E0CE010E94F2098091B1
:1010F0000B02882361F081E00E94D400E09101029C
:10110000F0910202309761F08EA1099509C081E04B
:101110000E94D400EC89FD89309711F08EA10995C9
:101120008AA18823A1F1CE010E942E07CE010E9440
:1011300037078A8D81112BC08D8D811104C080915C
:101140000802882321F11AA281E08DA32AEC38E05D
:1011500040E062E370E0CE010E94F20980910B0250
:10116000882361F081E00E94D400E0910302F091B5
:101170000402309761F08EA1099509C081E00E94B8
:10118000D400E889F989309711F08EA10995DF9193
:10119000CF910895CF93DF93909110029923C1F0DE
:1011A000D82FC0E0EC2FF0E0EE0FFF1FEF5EFD4FF9
:1011B0000190F081E02D91A59D1305C0309719F0A5
:1011C000CF010E945608CF5F90911002C91750F3CB
:1011D000DF91CF9108951F920F920FB60F921124B5
:1011E0002F933F934F935F936F937F938F939F932F
:1011F000AF93BF93EF93FF9383B1ECE0F2E0808372
:1012000086B1818389B182830E94D10080E00E94EF
:10121000D4000E943D08FF91EF91BF91AF919F9143
:101220008F917F916F915F914F913F912F910F908F
:101230000FBE0F901F9018951F920F920FB60F922E
:1012400011242F933F934F935F936F937F938F93CB
:101250009F93AF93BF93EF93FF930E94D10080E0E1
:101260000E94D4000E943D08FF91EF91BF91AF9181
:101270009F918F917F916F915F914F913F912F91AE
:101280000F900FBE0F901F9018951F920F920FB6E0
:101290000F9211242F933F934F935F936F937F93FC
:1012A0008F939F93AF93BF93EF93FF9383B1ECE042
:1012B000F2E0808386B1818389B182830E94D1006C
:1012C00080E00E94D4000E943D08FF91EF91BF9101
:1012D000AF919F918F917F916F915F914F913F91CE
:1012E0002F910F900FBE0F901F9018951F920F9285
:1012F0000FB60F9211242F933F934F935F936F93E9
:101300007F938F939F93AF93BF93EF93FF9383B19B
:10131000ECE0F2E0808386B1818389B182830E9410
:10132000D10080E00E94D4000E943D08FF91EF911F
:10133000BF91AF919F918F917F916F915F914F91ED
:101340003F912F910F900FBE0F901F9018951F92F5
:101350000F920FB60F9211242F933F934F935F93E9
:101360006F937F938F939F93AF93BF93EF93FF936D
:1013700083B1ECE0F2E0808386B1818389B182831E
:101380000E94D10080E00E94D4000E943D08FF919D
:10139000EF91BF91AF919F918F917F916F915F91ED
:1013A0004F913F912F910F900FBE0F901F90189566
:1013B00060E47FE181E00E94E90081E080931D020A
:1013C0000895DC0190911D02E92FF0E0EE0FFF1F60
:1013D000EA5DFD4FB183A08315969C939F5F909328
:1013E0001D020895FC0171836083738362833587D6
:1013F000248781E08387448380E00E94D40008959D
:10140000FC011386118210820895FC018281938170
:1014100020813181821B930B0895FC0177836683C1
:1014200081E082877187608780E00E94D400089500
:10143000FC018085918526813781821B930B08955D
:10144000FC011782168212860895CF93DF93EC0178
:101450008B858823E1F088819981009729F0019795
:1014600099838883892B99F48C81813029F48A812E
:101470009B819983888305C0811103C01B861982D3
:101480001882EC85FD85309711F08D8109958A854C
:10149000882351F08E819F81009729F001979F83C7
:1014A0008E83892B09F41A86DF91CF910895CF930B
:1014B00080911D02882391F0C0E0EC2FF0E0EE0F48
:1014C000FF1FEA5DFD4F80819181009711F00E941E
:1014D000250ACF5F80911D02C81778F3CF91089538
:1014E000FC01858108951F920F920FB60F9211246F
:1014F0002F933F934F935F936F937F938F939F931C
:10150000AF93BF93EF93FF930E94F50120911E02CA
:1015100030911F02409120025091210260912202DD
:10152000709123028091240290912502A1E00E94F3
:10153000670C20931E0230931F02409320025093A9
:1015400021026093220270932302809324029093DD
:1015500025020E94570AFF91EF91BF91AF919F9191
:101560008F917F916F915F914F913F912F910F904C
:101570000FBE0F901F90189591E090937102809389
:101580007202089581E0809370025A98089580E075
:1015900090E00E94D10168EE73E082E00E94E900D1
:1015A0000E94DA0041E062E082E00E944901089571
:1015B000CF93DF93CDB7DEB7CD51D1400FB6F894BE
:1015C000DEBF0FBECDBF0E94C70A2FEF84E39CE0B1
:1015D000215080409040E1F700C000008DE491E090
:1015E0000E94010378941092700220E041E061E0D3
:1015F000CE018B5E9E4F0E94AB060E94D8090E94CE
:10160000C2069E0129513F4F41E060E0C9010E949E
:101610005B079E0127543F4F40E060E0C9010E94F4
:101620005B079E0125573F4F46E060E0C9010E94DD
:101630005B079E01235A3F4F47E060E0C9010E94CB
:101640005B079E01215D3F4F46E062E0C9010E94B9
:101650005B079E012F5F3F4F47E062E0C9010E9498
:101660005B076CEB7AE0CE0189519F4F0E94CB065D
:1016700081E00E94230782E692E00E94E10922ECC9
:101680003AE040E064E670E082E692E00E94F2090F
:1016900088E491E00E94010381E00E94D4008091DF
:1016A00071028823E1F310927102CE018B5E9E4F8E
:1016B0000E942B04882329F0CE018B5E9E4F0E944E
:1016C000BD06CE018B5E9E4F0E943204882329F016
:1016D000CE018B5E9E4F0E9485058FE691E00E94B1
:1016E0001A032091720230E040E050E060E070E0C8
:1016F00080E090E00E94650260917202CE018B5EF4
:101700009E4F0E94C70522EC3AE040E069E170E09C
:1017100082E692E00E94F20980917002811107C076
:10172000CE018B5E9E4F0E9432048823A9F38091E4
:101730007002882319F01092700213C05A9A22EC9A
:101740003AE040E068EC70E082E692E00E94F20944
:1017500080E891E00E941A03CE018B5E9E4F0E94AA
:101760008505CE018B5E9E4F0E94DC030E94D70050
:10177000882309F494CF83B7817F846083BF83B7C4
:10178000816083BF78940E94CD0085E991E00E943A
:101790001A0383B7816083BF889583B78E7F83BF29
:1017A0007ECF689401C0E8948F929F92CF93DF938D
:1017B0000E94DF0BDF91CF919F908F900895882436
:1017C0009924F401E401B0E49F93AA279A158B04AD
:1017D0009C04ED05FE05CF05D007A10798F4AD2FB9
:1017E000DC2FCF2FFE2FE92D982C892E982F872FB5
:1017F000762F652F542F432F322F2227B85031F7E1
:10180000BF9127C01B2EBF91BB27220F331F441F40
:10181000551F661F771F881F991F881C991CEE1F74
:10182000FF1FCC1FDD1FAA1FBB1F8A149B04EC05E2
:10183000FD05CE05DF05A007B10748F08A189B0813
:10184000EC09FD09CE09DF09A00BB10B21601A9448
:10185000E1F62EF49401AF01BE01CD01000C089514
:101860000F93083090F0982F872F762F652F542FE5
:10187000432F322F22270850F4CF220F331F441F4B
:10188000551F661F771F881F991F0A95B2F70F9182
:10189000089597FB10F8169400080F93083098F0FD
:1018A0000850232F342F452F562F672F782F892F3D
:1018B000902DF4CF059497958795779567955795D3
:1018C0004795379527950A95AAF70F910895002413
:1018D000A7FD00942A0F301D401D501D601D701D76
:1018E000801D901D08952A153B054C055D056E056C
:1018F0007F058007910708950024A7FD00942A170B
:101900003005400550056005700580059005089577
:04191000F894FFCF79
:1019140020436F6E6669673A2000204649464F208F
:101924005374617475733A2000205458204F6273C5
:10193400657276653A200020466561747572653A71
:101944002000204D696C6C69733A20005370656502
:1019540064203D2000422F7320002044726F707376
:10196400203D20005061636B657473200050696EE4
:10197400207374617465206368616E6765640053E5
:10198400776974636820507265737365643A2000E4
:101994005061796C6F6164207472616E736D6974E7
:1019A4007465642E00536C656570696E672E2E2E07
:0219B400000031
:00000001FF
