:100000000C94AE000C9409090C943A090C94630901
:100010000C9494090C94C5090C9428020C94CB0000
:100020000C94CB000C94CB000C94CB000C94910A54
:100030000C94CB000C94CB000C94CB000C94CB0014
:100040000C94CB000C94CB000C94CB000C94CB0004
:100050000C94CB000C94CB000C94CB000C94CB00F4
:100060000C94CB000C94CB00496E697469616C6987
:100070007A696E67207375636365737366756C2E3A
:1000800000496E697469616C697A6174696F6E2088
:100090006661696C656420666F72206E5246323408
:1000A0004C30312E20436865636B20636F6E6E6544
:1000B0006374696F6E73005374617274696E672044
:1000C0006E524632344C303120696E205472616E6B
:1000D000736D6974204D6F64652E2E2E005374610C
:1000E0007274696E67206E524632344C303120692A
:1000F0006E2052656365697665204D6F64652E2EAE
:100100002E004D6173746572205258205061796CD5
:100110006F6164206C656E67746820736574207409
:100120006F203A20004D617374657220545820503E
:1001300061796C6F6164206C656E677468207365AB
:100140007420746F203A2000446F6E6500506F7702
:100150006572696E67206F6E2E2E2E0011241FBEF1
:10016000CFEFD8E0DEBFCDBF11E0A0E0B1E0EAE61E
:10017000F9E102C005900D92AC3AB107D9F723E03E
:10018000ACEAB1E001C01D92AF39B207E1F70E94BD
:10019000FB0A0C94B30C0C9400008FEA809364006B
:1001A00008951092640008958093AC0108958091A1
:1001B000AC010895249884B18C6284B92A9A8CB5D4
:1001C00082658CBD08958EBD0DB407FEFDCF8EB542
:1001D0000895709389006093880010928000877062
:1001E00088608093810082E080936F007894089506
:1001F0008130E9F018F0823099F10895442359F0E4
:1002000025B181E090E002C0880F991F6A95E2F75E
:10021000822B85B9089525B181E090E002C0880F56
:10022000991F6A95E2F78095822385B90895442342
:1002300059F028B181E090E002C0880F991F6A95BB
:10024000E2F7822B88B9089528B181E090E002C0DE
:10025000880F991F6A95E2F78095822388B90895DF
:10026000442359F02BB181E090E002C0880F991F20
:100270006A95E2F7822B8BB908952BB181E090E06B
:1002800002C0880F991F6A95E2F7809582238BB987
:1002900008958130E9F018F0823099F108954423EF
:1002A00059F024B181E090E002C0880F991F6A954F
:1002B000E2F7822B84B9089524B181E090E002C076
:1002C000880F991F6A95E2F78095822384B9089573
:1002D000442359F027B181E090E002C0880F991FB4
:1002E0006A95E2F7822B87B9089527B181E090E003
:1002F00002C0880F991F6A95E2F78095822387B91B
:100300000895442359F02AB181E090E002C0880F9B
:10031000991F6A95E2F7822B8AB908952AB181E084
:1003200090E002C0880F991F6A95E2F780958223BA
:100330008AB90895E8E6F0E0908121E030E0082EE7
:1003400002C0220F331F0A94E2F7292B2083813049
:1003500081F018F08230C9F00895EBE6F0E080817A
:1003600050E002C0440F551F6A95E2F7482B4083C6
:100370000895ECE6F0E0808150E002C0440F551F84
:100380006A95E2F7482B40830895EDE6F0E080811E
:1003900050E002C0440F551F6A95E2F7482B408396
:1003A00008959093C5008093C40088E18093C100B4
:1003B0008EE08093C2000895E0ECF0E0908195FF1C
:1003C000FDCF8093C60008952091AF013091B00118
:1003D0004091B1015091B2016091B3017091B401AB
:1003E0008091B5019091B60108952091AF013091AF
:1003F000B0014091B1015091B2016091B30170918F
:10040000B4018091B5019091B601A1E00E94920CD7
:100410002093AF013093B0014093B1015093B201EA
:100420006093B3017093B4018093B5019093B601CA
:100430008091AD019091AE01892B49F08091AD0181
:100440009091AE0101979093AE018093AD01089514
:100450001F920F920FB60F9211248F9384B78E7F45
:1004600084BF8F910F900FBE0F901F9018950F9320
:10047000E8EFF1E0A0E0B2E0219308E00E94760C02
:10048000EA17FB07C9F788EF91E00F9108958A30CA
:1004900010F0895C0895805D08951F93CF93DF93DA
:1004A000182F82958F700E944702C0E0D2E08883A7
:1004B000812F8F70809305020E94470289831A82E0
:1004C000CE01DF91CF911F9108952F923F924F92CD
:1004D0005F926F927F928F929F92AF92BF92CF92D4
:1004E000DF92EF92FF920F931F93CF93DF93CDB7DD
:1004F000DEB7C756D1090FB6F894DEBF0FBECDBF29
:10050000A6962FAFA697832E742E652E562E472EB5
:10051000382E292EA0E00E94A70C21F480E30E942F
:10052000DC0152C0912C81E090E08C0F9D1F890D61
:10053000911DA8969FAF8EAFA8970F2EFAE0AF2E11
:10054000F02DB12CC12CD12CE12CF12C00E010E0CD
:10055000A6962FADA697382D472D562D652D742DB7
:10056000832D922D0E94FC0B205DA896EEADFFAD71
:10057000A8972083A6962FADA697382D472D562DE8
:10058000652D742D832D922D0E94FE0BA6962FAF04
:10059000A697832E742E652E562E472E382E292E82
:1005A0009394A0E00E94A70C09F0BDCF992061F0C0
:1005B0009A94E1E0F0E0EC0FFD1FE90DF11D808160
:1005C0000E94DC019110F4CF80E20E94DC01C95945
:1005D000DF4F0FB6F894DEBF0FBECDBFDF91CF91D6
:1005E0001F910F91FF90EF90DF90CF90BF90AF9051
:1005F0009F908F907F906F905F904F903F902F9043
:100600000895CF93DF93EC018DE00E94DC018AE036
:100610000E94DC01FE018491882349F0FE0184914F
:100620000E94DC012196FE0184918111F7CFDF91B8
:10063000CF910895CF93DF93EC018DE00E94DC0110
:100640008AE00E94DC018881882331F021960E9493
:10065000DC0189918111FBCFDF91CF910895CF9378
:10066000DF93EC018881882331F021960E94DC0120
:1006700089918111FBCFDF91CF910895FF920F9364
:100680001F93CF93DF93F62E062F10E00150110930
:10069000080F191F80E30E94DC0188E70E94DC013B
:1006A000FF2081F0E80121968FEF8F0D081B1109C3
:1006B0008A918093F7010E944D020E942F03C01778
:1006C000D107B1F7EF2DF0E0E954FE4F128287EB2E
:1006D00091E0DF91CF911F910F91FF9008950F93BB
:1006E0000E943702602F0E943E030E942F030F9149
:1006F0000895419880E50E94E30083E70E94E300AB
:10070000419A0895862F41980E94E300419A0895E6
:10071000AF92BF92CF92DF92EF92FF920F931F930F
:10072000CF93DF93862FA42E41980E94E300AA2046
:1007300021F1D0E0C0E0B12CC12CD12CE12CF12C66
:1007400000E010E080E00E94E3002C2F282B3B2DDE
:100750004C2D5D2D6E2D7F2D802F912F08E00E9456
:100760005B0CC22FB32EC42ED52EE62EF72E082FEB
:10077000192FDF5FDA11E6CF08C0C0E0B12CC12C21
:10078000D12CE12CF12C00E010E0419A2C2F3B2DD4
:100790004C2D5D2D6E2D7F2D802F912F08E00E9416
:1007A000760CDF91CF911F910F91FF90EF90DF902A
:1007B000CF90BF90AF9008950F93CF93DF93EC014C
:1007C00080E091E00E941A0341E060E0CE010E94C7
:1007D000880301E00E946F038AE091E00E942F03EA
:1007E00041E067E1CE010E9488030E946F038FE021
:1007F00091E00E942F036FEFCE010E948203282F09
:1008000030E040E050E060E070E080E090E00E9486
:100810006F0389E191E00E942F0341E068E0CE017F
:100820000E9488030E94650287E291E00E942F03E4
:1008300041E06DE1CE010E9488030E94650282E3DF
:1008400091E00E942F030E94E4010E946502DF9163
:10085000CF910F91089541E067E10E948803822FB4
:100860008072089541E067E00E948803822F8072C1
:10087000089541E067E00E948803822F8071089507
:100880009F92AF92BF92CF92DF92EF92FF920F931F
:100890001F93CF93DF93C22FD32FB42EA52E419851
:1008A000862F80620E94E300982ECC20D1F0D12CBC
:1008B0008E2D0E94E3002E2D3F2D402F512F6C2FA7
:1008C0007D2F8B2D9A2D08E00E94760CE22EF32EC0
:1008D000042F152FC62FD72FB82EA92ED394DC1096
:1008E000E7CF419A892DDF91CF911F910F91FF9012
:1008F000EF90DF90CF90BF90AF909F900895CF92F0
:10090000EF92FF920F931F93CF93DF93EC01E62EAC
:1009100041E060E00E9488032D7FEE0CE22AEB822A
:10092000CC24C394F12C00E010E020E030E040E063
:1009300050E060E0CE010E944004DF91CF911F9112
:100940000F91FF90EF90CF900895AF92BF92CF920A
:10095000DF92EF92FF920F931F93CF93DF93EC01FF
:10096000D62E41E060E00E9488032B8301E030E056
:1009700040E050E060E070E080E090E00E946F03B3
:100980008B818E7FED2CE82AEB82CC24C394F12C52
:1009900000E010E020E030E040E050E060E0CE0118
:1009A0000E944004DD2029F08DED90E00E940103BB
:1009B00004C087EB90E00E94010341E060E0CE01BB
:1009C0000E948803AB80B12CC12CD12CE12CF12CDE
:1009D00000E010E00E949E0C29F081E890E00E9467
:1009E000010304C088E690E00E940103DF91CF91EB
:1009F0001F910F91FF90EF90DF90CF90BF90AF903D
:100A00000895CF92EF92FF920F931F93CF93DF93AE
:100A1000EC01E62E41E06DE10E9488032D7FEE0C93
:100A2000E22AEB82CC24C394F12C00E010E020E019
:100A300030E040E050E06DE1CE010E944004DF91E3
:100A4000CF911F910F91FF90EF90CF900895CF928B
:100A5000EF92FF920F931F93CF93DF93EC01E62E5B
:100A600041E06DE10E9488032B7FEE0CEE0CE22A40
:100A7000EB82CC24C394F12C00E010E020E030E0C5
:100A800040E050E06DE1CE010E944004DF91CF9143
:100A90001F910F91FF90EF90CF900895AF92BF926A
:100AA000CF92EF92FF920F931F93CF93DF93663015
:100AB00048F5C42FD62F5C0141E06CE10E94880309
:100AC00081E090E00D2E02C0880F991F0A94E2F792
:100AD000809582234C2F50E002C0440F551FDA95B9
:100AE000E2F7E82EE42AF501E382CC24C394F12C4A
:100AF00000E010E020E030E040E050E06CE1C501B3
:100B00000E944004DF91CF911F910F91FF90EF90D1
:100B1000CF90BF90AF900895CF92EF92FF920F9336
:100B20001F93CC24C3946894EE24E5F8F12C00E0E4
:100B300010E020E030E040E050E067E00E94400438
:100B40001F910F91FF90EF90CF900895CF92EF9269
:100B5000FF920F931F93CC24C3946894EE24E4F87F
:100B6000F12C00E010E020E030E040E050E067E0F1
:100B70000E9440041F910F91FF90EF90CF90089535
:100B8000CF92EF92FF920F931F93CF93DF93EC01DD
:100B9000E62E41E066E00E948803277FEE0CEE0C13
:100BA000EE0CE22AEB82CC24C394F12C00E010E09E
:100BB00020E030E040E050E066E0CE010E944004DA
:100BC000DF91CF911F910F91FF90EF90CF900895FB
:100BD000AF92BF92CF92EF92FF920F931F93CF935A
:100BE000DF931F92CDB7DEB75C0169836FEF0E9480
:100BF00082038093060280FD09C0419880EA0E942A
:100C0000E30089810E94E300419A12C084FF10C072
:100C1000CC24C3946894EE24E4F8F12C00E010E0B6
:100C200020E030E040E050E067E0C5010E94400471
:100C30000F90DF91CF911F910F91FF90EF90CF9088
:100C4000BF90AF900895CF92EF92FF920F931F93B2
:100C50000F2EF5E0CF2EF02DE02EF12E022F132FC8
:100C6000242F352F462F572F60E10E9440041F91FB
:100C70000F91FF90EF90CF900895CF92EF92FF9257
:100C80000F931F930F2EF5E0CF2EF02DE02EF12EB7
:100C9000022F132F242F352F462F572F6AE00E9443
:100CA00040041F910F91FF90EF90CF900895CF9245
:100CB000EF92FF920F931F93CF93DF93EC01399A3A
:100CC000389A409A579A1A8285E291E00E9401036D
:100CD000288130E040E050E060E070E080E090E0AB
:100CE0000E94650282E091E00E940103298130E0C8
:100CF00040E050E060E070E080E090E00E9465023B
:100D000005EB1AEB2AEB3AEB4AEB50E060E070E0BF
:100D1000CE010E9423062AEB3AEB4AEB50E060E05A
:100D200070E0CE010E943D06CC24C394E12CF12C4E
:100D300000E010E020E030E040E050E064E0CE0170
:100D40000E94400461E0CE010E94C0056F81CE0187
:100D50000E94A5048885882381F0CE010E94790332
:100D600061E0CE010E94270541E060E0CE010E94D3
:100D70004E0561E0CE010E94010561E0CE010E94B6
:100D80007F04DF91CF911F910F91FF90EF90CF9053
:100D900008953FEF50E772E0315050407040E1F766
:100DA00000C00000FC01278321E02087608341838D
:100DB0000E945706089561EE0E94820308950895E7
:100DC00010921A028FED96E090930802809307022A
:100DD0000895FC017787668770930A026093090281
:100DE00021E0248F0895CF93DF93EC011BA21CA276
:100DF0000E943E0ACE010E941E0A8C8D811104C001
:100E0000809114028823C9F080911502882361F033
:100E100081E00E94D400E0910902F0910A0230972B
:100E200061F08EA1099509C081E00E94D400EE8591
:100E3000FF85309711F08EA10995DF91CF9108952C
:100E4000CF93DF9390911A029923C1F0D82FC0E07D
:100E5000EC2FF0E0EE0FFF1FE55EFD4F0190F081FB
:100E6000E02D91A59D1305C0309719F0CF010E9488
:100E7000F306CF5F90911A02C91750F3DF91CF911B
:100E80000895809315028093140280931302809337
:100E9000120280931102089583B1E6E1F2E08083AB
:100EA00086B1818389B182830895FC0180A5813058
:100EB00049F018F0823059F00EC0809116028093EC
:100EC000190209C0809117028093190204C0809111
:100ED000180280931902828D81A32091190230E0BB
:100EE00007A002C0359527950A94E2F72170228F5A
:100EF0000895EF92FF920F931F93CF93DF93EC012E
:100F0000F62EE42E89011F861E861B8A1A8A198AEC
:100F1000188A1D8A1C8A1F8A1E8A198E188E0E94A2
:100F2000FF09EFA2F8A640E06E2D8F2D0E94490127
:100F300041E06FA188A50E94F80041E06E2D8F2D41
:100F40000E949A0188A5813041F018F0823049F062
:100F50000BC083B18093190207C086B18093190238
:100F600003C089B18093190280911A02E82FF0E042
:100F7000EE0FFF1FE55EFD4F118300838EA38F5F91
:100F800080931A02CE010E944C07CE010E945507A1
:100F90001F8ECE010E948E0A89A7DF91CF911F91EB
:100FA0000F91FF90EF900895CF93DF93EC010E9493
:100FB00055078A8D811120C089A1882309F478C042
:100FC0008BA1811108C028EE38E040E06CEB72E0A4
:100FD000CE010E94100A81E08AA38BA1882341F0F0
:100FE00068E572E0CE010E942B0A81E08CA31BA26F
:100FF0008A8D882309F45CC089A1811159C08CA114
:10100000811106C0CE010E94230A9DA78CA705C0AE
:10101000CE010E94360A9DA78CA7CE010E943E0AEF
:10102000CE010E941E0A1AA28CA59DA50B978D3495
:10103000924098F58CA1811117C08DA181112FC00C
:101040008F8D882359F020E237E040E064E670E0BD
:10105000CE010E94100A81E08BA303C0CE010E9442
:10106000F3068CA1882309F180911502882361F091
:1010700081E00E94D400E0910F02F09110023097BD
:1010800061F08EA1099509C081E00E94D400EA892F
:10109000FB89309711F08EA109958DA181111DA2B8
:1010A0008CA1882329F01CA203C08DA18111F7CF48
:1010B000DF91CF910895CF9380911A02882391F008
:1010C000C0E0EC2FF0E0EE0FFF1FE55EFD4F8081EA
:1010D0009181009711F00E94D407CF5F80911A028E
:1010E000C81778F3CF910895CF93DF93EC0118A23E
:1010F0001BA21CA28DA1882389F1CE010E944C075E
:10110000CE010E9455078A8D811128C08E8D8111D4
:1011100004C080911102882309F128EE38E040E0F4
:1011200066E470E0CE010E94100A809115028823C7
:1011300061F081E00E94D400E0910B02F0910C027A
:10114000309761F08EA1099509C081E00E94D4001A
:10115000EC89FD89309711F08EA109958AA1882329
:10116000A1F1CE010E944C07CE010E9455078A8D45
:1011700081112BC08D8D811104C0809112028823B2
:1011800021F11AA281E08DA328EE38E040E062E36D
:1011900070E0CE010E94100A80911502882361F050
:1011A00081E00E94D400E0910D02F0910E02309790
:1011B00061F08EA1099509C081E00E94D400E88900
:1011C000F989309711F08EA10995DF91CF9108959B
:1011D000CF93DF9390911A029923C1F0D82FC0E0EA
:1011E000EC2FF0E0EE0FFF1FE55EFD4F0190F08168
:1011F000E02D91A59D1305C0309719F0CF010E94F5
:101200007408CF5F90911A02C91750F3DF91CF9104
:1012100008951F920F920FB60F9211242F933F93B0
:101220004F935F936F937F938F939F93AF93BF93EE
:10123000EF93FF9383B1E6E1F2E0808386B181838F
:1012400089B182830E94D10080E00E94D4000E9474
:101250005B08FF91EF91BF91AF919F918F917F912B
:101260006F915F914F913F912F910F900FBE0F9013
:101270001F9018951F920F920FB60F9211242F9363
:101280003F934F935F936F937F938F939F93AF930E
:10129000BF93EF93FF930E94D10080E00E94D4009F
:1012A0000E945B08FF91EF91BF91AF919F918F9149
:1012B0007F916F915F914F913F912F910F900FBE52
:1012C0000F901F9018951F920F920FB60F92112436
:1012D0002F933F934F935F936F937F938F939F933E
:1012E000AF93BF93EF93FF9383B1E6E1F2E0808386
:1012F00086B1818389B182830E94D10080E00E94FF
:10130000D4000E945B08FF91EF91BF91AF919F9134
:101310008F917F916F915F914F913F912F910F909E
:101320000FBE0F901F9018951F920F920FB60F923D
:1013300011242F933F934F935F936F937F938F93DA
:101340009F93AF93BF93EF93FF9383B1E6E1F2E0F6
:10135000808386B1818389B182830E94D10080E03D
:101360000E94D4000E945B08FF91EF91BF91AF9162
:101370009F918F917F916F915F914F913F912F91AD
:101380000F900FBE0F901F9018951F920F920FB6DF
:101390000F9211242F933F934F935F936F937F93FB
:1013A0008F939F93AF93BF93EF93FF9383B1E6E146
:1013B000F2E0808386B1818389B182830E94D1006B
:1013C00080E00E94D4000E945B08FF91EF91BF91E2
:1013D000AF919F918F917F916F915F914F913F91CD
:1013E0002F910F900FBE0F901F90189560E47FE132
:1013F00081E00E94E90081E0809327020895DC01EA
:1014000090912702E92FF0E0EE0FFF1FE05DFD4F06
:10141000B183A08315969C939F5F909327020895B4
:10142000FC0171836083738362833587248781E045
:101430008387448380E00E94D4000895FC011386D2
:10144000118210820895FC01828193812081318173
:10145000821B930B0895FC017783668381E082876A
:101460007187608780E00E94D4000895FC01808528
:10147000918526813781821B930B0895FC01178289
:10148000168212860895CF93DF93EC018B85882313
:10149000E1F088819981009729F0019799838883E9
:1014A000892B99F48C81813029F48A819B819983DD
:1014B000888305C0811103C01B8619821882EC85C0
:1014C000FD85309711F08D8109958A85882351F02B
:1014D0008E819F81009729F001979F838E83892BAE
:1014E00009F41A86DF91CF910895CF938091270256
:1014F000882391F0C0E0EC2FF0E0EE0FFF1FE05DDD
:10150000FD4F80819181009711F00E94430ACF5FC7
:1015100080912702C81778F3CF910895FC01858147
:1015200008951F920F920FB60F9211242F933F939D
:101530004F935F936F937F938F939F93AF93BF93DB
:10154000EF93FF930E94F501209128023091290228
:1015500040912A0250912B0260912C0270912D0231
:1015600080912E0290912F02A1E00E94920C209374
:1015700028023093290240932A0250932B02609351
:101580002C0270932D0280932E0290932F020E94C2
:10159000750AFF91EF91BF91AF919F918F917F91CC
:1015A0006F915F914F913F912F910F900FBE0F90D0
:1015B0001F90189591E090939D0380939E0381E086
:1015C0000E94D400089581E080939C035A980E9461
:1015D000D400089580E090E00E94D10168EE73E0AD
:1015E00082E00E94E9000E94DA0041E062E082E0CD
:1015F0000E9449010895CF93DF93CDB7DEB72997B5
:101600000FB6F894DEBF0FBECDBF0E94EA0A2FEFDF
:1016100084E39CE0215080409040E1F700C000004E
:101620008DE491E00E940103789410929C0320E0E5
:1016300041E061E0CE0101960E94C9060E94F609D0
:101640008EE893E00E94FF0980E893E00E94FF0982
:1016500023EE3AE040E064E670E08EE893E00E941A
:10166000100A0E94E00622E533E040E060E0C90194
:101670000E94790724E233E046E060E0C9010E945D
:10168000790726EF32E041E060E0C9010E94790766
:1016900028EC32E047E060E0C9010E9479072AE9BE
:1016A00032E046E062E0C9010E9479072CE632E0B0
:1016B00047E062E0C9010E9479076AED7AE082E5BD
:1016C00093E00E94E90681E00E94410788E491E0EE
:1016D0000E94010381E00E94D40080919D03882331
:1016E000E1F310929D03CE0101960E9439048823F4
:1016F00021F0CE0101960E94A605CE0101960E941E
:101700002B04882321F0CE0101960E94DB06CE0136
:1017100001960E943204882321F0CE0101960E9496
:101720008C058FE691E00E941A0320919E0330E021
:1017300040E050E060E070E080E090E00E946502F0
:1017400060919E03CE0101960E94E80510929C03D1
:1017500023EE3AE040E062E370E080E893E00E942C
:10176000100ACE0101960E943204803209F43DC075
:1017700080919C03811139C0F4CF5A9A23EE3AE04C
:1017800040E068EC70E08EE893E00E94100A80E888
:1017900091E00E941A03CE0101960E948C0506C0BA
:1017A00010929C0385E991E00E941A03CE010196F4
:1017B0000E94DC030E94D700882309F48ECF83B7F0
:1017C000817F846083BF83B7816083BF78940E94E8
:1017D000CD008FE991E00E941A0383B7816083BF37
:1017E000889583B78E7F83BF78CFCE0101960E9404
:1017F00032048032A9F6C1CF689401C0E8948F9278
:101800009F92CF93DF930E940A0CDF91CF919F901C
:101810008F90089588249924F401E401B0E49F9303
:10182000AA279A158B049C04ED05FE05CF05D00769
:10183000A10798F4AD2FDC2FCF2FFE2FE92D982C88
:10184000892E982F872F762F652F542F432F322FD5
:101850002227B85031F7BF9127C01B2EBF91BB275D
:10186000220F331F441F551F661F771F881F991FA4
:10187000881C991CEE1FFF1FCC1FDD1FAA1FBB1F5A
:101880008A149B04EC05FD05CE05DF05A007B10712
:1018900048F08A189B08EC09FD09CE09DF09A00B66
:1018A000B10B21601A94E1F62EF49401AF01BE0150
:1018B000CD01000C08950F93083090F0982F872FDA
:1018C000762F652F542F432F322F22270850F4CF25
:1018D000220F331F441F551F661F771F881F991F34
:1018E0000A95B2F70F91089597FB10F81694000827
:1018F0000F93083098F00850232F342F452F562F80
:10190000672F782F892F902DF4CF05949795879581
:101910007795679557954795379527950A95AAF72F
:101920000F9108950024A7FD00942A0F301D401D3B
:10193000501D601D701D801D901D08952A153B05CA
:101940004C055D056E057F0580079107089500240D
:10195000A7FD00942A173005400550056005700565
:0A196000800590050895F894FFCF6C
:10196A0020436F6E6669673A2000204649464F2039
:10197A005374617475733A2000205458204F62736F
:10198A00657276653A200020466561747572653A1B
:10199A002000204D696C6C69733A200053706565AC
:1019AA0064203D2000422F7320002044726F707320
:1019BA00203D20005061636B657473200050696E8E
:1019CA00207374617465206368616E67656400538F
:1019DA00776974636820507265737365643A20008E
:1019EA005061796C6F6164207472616E736D697491
:1019FA007465642E0054696D6564206F75740053B4
:0C1A0A006C656570696E672E2E2E000062
:00000001FF
