:100000000C94D5000C947D090C94AE090C94D7097E
:100010000C94080A0C94390A0C944F020C94F200C8
:100020000C94F2000C94F2000C94F2000C94050B6A
:100030000C94F2000C94F2000C94F2000C94F20078
:100040000C94F2000C94F2000C94F2000C94F20068
:100050000C94F2000C94F2000C94F2000C94F20058
:100060000C94F2000C94F200496E697469616C6939
:100070007A696E67207375636365737366756C2E3A
:1000800000496E697469616C697A6174696F6E2088
:100090006661696C656420666F72206E5246323408
:1000A0004C30312E20436865636B20636F6E6E6544
:1000B0006374696F6E73005374617274696E672044
:1000C0006E524632344C303120696E205472616E6B
:1000D000736D6974204D6F64652E2E2E005374610C
:1000E0007274696E67206E524632344C303120692A
:1000F0006E2052656365697665204D6F64652E2EAE
:100100002E0054657374696E67207375636365733D
:100110007366756C2E0054657374696E6720666132
:10012000696C656420666F72206E52462E204368AB
:1001300065636B20636F6E6E656374696F6E7300C9
:1001400054657374696E67206E52462E2E2E004DD4
:100150006173746572205258205061796C6F6164CC
:10016000206C656E6774682073657420746F203A24
:1001700020004D6173746572205458205061796C71
:100180006F6164206C656E67746820736574207499
:100190006F203A2000446F6E6500506F776572697A
:1001A0006E67206F6E2E2E2E000011241FBECFEF23
:1001B000D8E0DEBFCDBF11E0A0E0B1E0E2EAFBE1B4
:1001C00002C005900D92AC3AB107D9F722E0ACEA33
:1001D000B1E001C01D92AF3BB207E1F70E947C0B7A
:1001E0000C94CF0D0C9400008FEA80936400089566
:1001F0001092640008958093AC0108958091AC0141
:100200000895249884B18C6284B92A9A8CB5826549
:100210008CBD08958EBD0DB407FEFDCF8EB508953B
:1002200070938900609388001092800087708860C6
:100230008093810082E080936F00789408958130EC
:10024000E9F018F0823099F10895442359F025B16E
:1002500081E090E002C0880F991F6A95E2F7822B37
:1002600085B9089525B181E090E002C0880F991FFB
:100270006A95E2F78095822385B90895442359F061
:1002800028B181E090E002C0880F991F6A95E2F7DB
:10029000822B88B9089528B181E090E002C0880FD0
:1002A000991F6A95E2F78095822388B908954423BF
:1002B00059F02BB181E090E002C0880F991F6A9538
:1002C000E2F7822B8BB908952BB181E090E002C058
:1002D000880F991F6A95E2F7809582238BB908955C
:1002E0008130E9F018F0823099F10895442359F0F3
:1002F00024B181E090E002C0880F991F6A95E2F76F
:10030000822B84B9089524B181E090E002C0880F67
:10031000991F6A95E2F78095822384B90895442352
:1003200059F027B181E090E002C0880F991F6A95CB
:10033000E2F7822B87B9089527B181E090E002C0EF
:10034000880F991F6A95E2F78095822387B90895EF
:10035000442359F02AB181E090E002C0880F991F30
:100360006A95E2F7822B8AB908952AB181E090E07C
:1003700002C0880F991F6A95E2F7809582238AB997
:100380000895E8E6F0E0908121E030E0082E02C018
:10039000220F331F0A94E2F7292B2083813081F04A
:1003A00018F08230C9F00895EBE6F0E0808150E06B
:1003B00002C0440F551F6A95E2F7482B4083089509
:1003C000ECE6F0E0808150E002C0440F551F6A95D2
:1003D000E2F7482B40830895EDE6F0E0808150E09D
:1003E00002C0440F551F6A95E2F7482B40830895D9
:1003F0009093C5008093C40088E18093C1008EE093
:100400008093C2000895E0ECF0E0908195FFFDCF6D
:100410008093C60008952091AF013091B0014091C2
:10042000B1015091B2016091B3017091B40180911A
:10043000B5019091B60108952091AF013091B001BE
:100440004091B1015091B2016091B3017091B4013A
:100450008091B5019091B601A1E00E94AE0D20936C
:10046000AF013093B0014093B1015093B20160935A
:10047000B3017093B4018093B5019093B60180915C
:10048000AD019091AE01892B49F08091AD01909121
:10049000AE0101979093AE018093AD0108951F9234
:1004A0000F920FB60F9211248F9384B78E7F84BF63
:1004B0008F910F900FBE0F901F9018950F93E8EF3C
:1004C000F1E0A0E0B2E0219308E00E94920DEA176B
:1004D000FB07C9F788EF91E00F9108958A3010F07B
:1004E000895C0895805D08951F93CF93DF93182F43
:1004F00082958F700E946E02C0E0D2E08883812FC7
:100500008F70809305020E946E0289831A82CE0149
:10051000DF91CF911F9108952F923F924F925F925A
:100520006F927F928F929F92AF92BF92CF92DF9203
:10053000EF92FF920F931F93CF93DF93CDB7DEB768
:10054000C756D1090FB6F894DEBF0FBECDBFA69631
:100550002FAFA697832E742E652E562E472E382E3B
:10056000292EA0E00E94C30D21F480E30E94030223
:1005700052C0912C81E090E08C0F9D1F890D911D40
:10058000A8969FAF8EAFA8970F2EFAE0AF2EF02D52
:10059000B12CC12CD12CE12CF12C00E010E0A6965E
:1005A0002FADA697382D472D562D652D742D832DF3
:1005B000922D0E94180D205DA896EEADFFADA89774
:1005C0002083A6962FADA697382D472D562D652D45
:1005D000742D832D922D0E941A0DA6962FAFA697EB
:1005E000832E742E652E562E472E382E292E939448
:1005F000A0E00E94C30D09F0BDCF992061F09A944C
:10060000E1E0F0E0EC0FFD1FE90DF11D80810E949B
:1006100003029110F4CF80E20E940302C959DF4F18
:100620000FB6F894DEBF0FBECDBFDF91CF911F9103
:100630000F91FF90EF90DF90CF90BF90AF909F9081
:100640008F907F906F905F904F903F902F90089584
:10065000CF93DF93EC018DE00E9403028AE00E94B9
:100660000302FE018491882349F0FE0184910E94D7
:1006700003022196FE0184918111F7CFDF91CF9182
:100680000895CF93DF93EC018DE00E9403028AE08E
:100690000E9403028881882331F021960E94030280
:1006A00089918111FBCFDF91CF910895CF93DF9393
:1006B000EC018881882331F021960E940302899100
:1006C0008111FBCFDF91CF910895FF920F931F937C
:1006D000CF93DF93F62E062F10E001501109080F7B
:1006E000191F80E30E94030288E70E940302FF2093
:1006F00081F0E80121968FEF8F0D081B11098A9177
:100700008093F7010E9474020E945603C017D1071C
:10071000B1F7EF2DF0E0E954FE4F128287EB91E044
:10072000DF91CF911F910F91FF9008950F930E9439
:100730005E02602F0E9465030E9456030F91089588
:10074000419880E50E940A0183E70E940A01419ACC
:100750000895862F41980E940A01419A0895AF9208
:10076000BF92CF92DF92EF92FF920F931F93CF939E
:10077000DF93862FA42E41980E940A01AA2021F11E
:10078000D0E0C0E0B12CC12CD12CE12CF12C00E048
:1007900010E080E00E940A012C2F282B3B2D4C2DCD
:1007A0005D2D6E2D7F2D802F912F08E00E94770DFB
:1007B000C22FB32EC42ED52EE62EF72E082F192FBA
:1007C000DF5FDA11E6CF08C0C0E0B12CC12CD12C1C
:1007D000E12CF12C00E010E0419A2C2F3B2D4C2D08
:1007E0005D2D6E2D7F2D802F912F08E00E94920DA0
:1007F000DF91CF911F910F91FF90EF90DF90CF90FD
:10080000BF90AF9008950F93CF93DF93EC0180E0FA
:1008100091E00E94410341E060E0CE010E94AF03FD
:1008200001E00E9496038AE091E00E94560341E0B5
:1008300067E1CE010E94AF030E9496038FE091E032
:100840000E9456036FEFCE010E94A903282F30E0CB
:1008500040E050E060E070E080E090E00E949603AD
:1008600089E191E00E94560341E068E0CE010E94D8
:10087000AF030E948C0287E291E00E94560341E0A0
:100880006DE1CE010E94AF030E948C0282E391E0F1
:100890000E9456030E940B020E948C02DF91CF91AE
:1008A0000F91089541E067E10E94AF03822F8072AB
:1008B000089541E067E00E94AF03822F807208959F
:1008C00041E067E00E94AF03822F807108959F92FC
:1008D000AF92BF92CF92DF92EF92FF920F931F934E
:1008E000CF93DF93C22FD32FB42EA52E4198862FFE
:1008F00080620E940A01982ECC20D1F0D12C8E2D3E
:100900000E940A012E2D3F2D402F512F6C2F7D2F3D
:100910008B2D9A2D08E00E94920DE22EF32E042FCB
:10092000152FC62FD72FB82EA92ED394DC10E7CFC2
:10093000419A892DDF91CF911F910F91FF90EF90F8
:10094000DF90CF90BF90AF909F900895CF92EF929D
:10095000FF920F931F93CF93DF93EC01E62E41E0BC
:1009600060E00E94AF032D7FEE0CE22AEB82CC24E4
:10097000C394F12C00E010E020E030E040E050E0D3
:1009800060E0CE010E946704DF91CF911F910F912B
:10099000FF90EF90CF900895AF92BF92CF92DF92E9
:1009A000EF92FF920F931F93CF93DF93EC0180E4BC
:1009B00091E00E94280341E060E0CE010E94AF0375
:1009C00081E0E22EE826EB82CC24C394F12C00E0F7
:1009D00010E020E030E040E050E060E0CE010E9416
:1009E000670441E060E0CE010E94AF03AB80B12C10
:1009F000C12CD12CE12C0E94BA0D29F086E191E0A6
:100A00000E94280304C082E091E00E942803EB804A
:100A100081E0E826EB82CC24C394F12C00E010E0C6
:100A200020E030E040E050E060E0CE010E9467044A
:100A3000DF91CF911F910F91FF90EF90DF90CF90BA
:100A4000BF90AF900895AF92BF92CF92DF92EF9296
:100A5000FF920F931F93CF93DF93EC01D62E41E0CB
:100A600060E00E94AF032E7FE22EED28EB82CC24C3
:100A7000C394F12C00E010E020E030E040E050E0D2
:100A800060E0CE010E946704DD2029F08DED90E04A
:100A90000E94280304C087EB90E00E94280341E0F5
:100AA00060E0CE010E94AF03AB80B12CC12CD12CF1
:100AB000E12CF12C00E010E00E94BA0D29F081E851
:100AC00090E00E94280304C088E690E00E9428037A
:100AD000DF91CF911F910F91FF90EF90DF90CF901A
:100AE000BF90AF900895CF92EF92FF920F931F9314
:100AF000CF93DF93EC01E62E41E06DE10E94AF035E
:100B00002D7FEE0CE22AEB82CC24C394F12C00E082
:100B100010E020E030E040E050E06DE1CE010E94C6
:100B20006704DF91CF911F910F91FF90EF90CF90CD
:100B30000895CF92EF92FF920F931F93CF93DF937D
:100B4000EC01E62E41E06DE10E94AF032B7FEE0C3D
:100B5000EE0CE22AEB82CC24C394F12C00E010E0EE
:100B600020E030E040E050E06DE1CE010E946704FB
:100B7000DF91CF911F910F91FF90EF90CF9008954B
:100B8000AF92BF92CF92EF92FF920F931F93CF93AA
:100B9000DF93663048F5C42FD62F5C0141E06CE14D
:100BA0000E94AF0381E090E00D2E02C0880F991FD4
:100BB0000A94E2F7809582234C2F50E002C0440F44
:100BC000551FDA95E2F7E82EE42AF501E382CC24FA
:100BD000C394F12C00E010E020E030E040E050E071
:100BE0006CE1C5010E946704DF91CF911F910F91C5
:100BF000FF90EF90CF90BF90AF900895CF92EF927B
:100C0000FF920F931F93CC24C3946894EE24E5F8CD
:100C1000F12C00E010E020E030E040E050E067E040
:100C20000E9467041F910F91FF90EF90CF9008955D
:100C3000CF92EF92FF920F931F93CC24C3946894AA
:100C4000EE24E4F8F12C00E010E020E030E040E099
:100C500050E067E00E9467041F910F91FF90EF90B2
:100C6000CF900895CF92EF92FF920F931F93CF935F
:100C7000DF93EC01E62E41E066E00E94AF03277FA0
:100C8000EE0CEE0CEE0CE22AEB82CC24C394F12C99
:100C900000E010E020E030E040E050E066E0CE010F
:100CA0000E946704DF91CF911F910F91FF90EF9009
:100CB000CF900895CF92EF92FF920F931F93CF930F
:100CC000DF93EC01399A389A409A579A1A8282E750
:100CD00091E00E942803288130E040E050E060E08D
:100CE00070E080E090E00E948C028FE491E00E942E
:100CF0002803298130E040E050E060E070E080E0CF
:100D000090E00E948C02CE010E94CC04CC24C394BB
:100D1000E12CF12C00E010E020E030E040E050E079
:100D200064E0CE010E94670461E0CE010E943206B9
:100D30006F81CE010E9423058885882381F041E0E0
:100D400060E0CE010E94C005CE010E94A00361E0D8
:100D5000CE010E94990561E0CE010E94730561E019
:100D6000CE010E94A604DF91CF911F910F91FF90B9
:100D7000EF90CF9008953FEF50E772E03150504030
:100D80007040E1F700C00000FC01278321E02087CC
:100D9000608341830E945A060895AF92BF92CF921A
:100DA000EF92FF920F931F93CF93DF931F92CDB7D4
:100DB000DEB75C0169836FEF0E94A903809306028E
:100DC00080FD09C0419880EA0E940A0189810E9441
:100DD0000A01419A12C084FF10C0CC24C3946894C5
:100DE000EE24E4F8F12C00E010E020E030E040E0F8
:100DF00050E067E0C5010E9467040F90DF91CF913A
:100E00001F910F91FF90EF90CF90BF90AF900895FA
:100E1000CF92EF92FF920F931F930F2EF5E0CF2EFC
:100E2000F02DE02EF12E022F132F242F352F462FD9
:100E3000572F60E10E9467041F910F91FF90EF9080
:100E4000CF900895CF92EF92FF920F931F93F22FBE
:100E5000242F462F6AE06E0D0F2EF5E0CF2EF02DD9
:100E6000E02EF12E0F2F132F352F572F0E946704DE
:100E70001F910F91FF90EF90CF90089561EE0E9427
:100E8000A9030895089510921D0282E497E09093BB
:100E90000802809307020895FC01718F608F7093A0
:100EA0000A026093090221E021A30895FC01778BD7
:100EB000668B70930C0260930B0221E022A30895CD
:100EC000CF93DF93EC011DA21EA20E94B20ACE01B5
:100ED0000E94920A8C8D811104C080911702882390
:100EE000C9F080911802882361F081E00E94FB0024
:100EF000E0910D02F0910E02309761F088A50995FE
:100F000009C081E00E94FB00EE85FF85309711F05B
:100F100088A50995DF91CF910895CF93DF939091A4
:100F20001D029923C1F0D82FC0E0EC2FF0E0EE0FA6
:100F3000FF1FE25EFD4F0190F081E02D93A59D1310
:100F400005C0309719F0CF010E946007CF5F9091E4
:100F50001D02C91750F3DF91CF91089583B1E9E1E4
:100F6000F2E0808386B1818389B182830895FC0198
:100F700082A5813049F018F0823059F00EC080917E
:100F8000190280931C0209C080911A0280931C02EE
:100F900004C080911B0280931C02828D83A3209148
:100FA0001C0230E001A402C0359527950A94E2F7AF
:100FB0002170228F0895EF92FF920F931F93CF938A
:100FC000DF93EC01F62EE42E89011F861E861B8A14
:100FD0001A8A198A188A1D8A1C8A1F8A1E8A198EE3
:100FE000188E0E94730AE9A6FAA640E06E2D8F2D96
:100FF0000E94700141E069A58AA50E941F0141E09D
:101000006E2D8F2D0E94C1018AA5813041F018F00C
:10101000823049F00BC083B180931C0207C086B1B7
:1010200080931C0203C089B180931C0280911D0231
:10103000E82FF0E0EE0FFF1FE25EFD4F118300830B
:1010400088A78F5F80931D02CE010E94AE07CE015C
:101050000E94B7071F8ECE010E94020B8BA7DF9163
:10106000CF911F910F91FF90EF900895CF93DF9351
:10107000EC010E94B7078A8D811129C08BA18823BA
:1010800009F48AC089A1882331F0E88DF98D309761
:1010900011F088A509958DA1811108C02CE539E0D2
:1010A00040E06CEB72E0CE010E94840A81E08CA3E8
:1010B0008DA1882341F068E572E0CE010E949F0A6D
:1010C00081E08EA31DA28A8D882309F465C08BA1BF
:1010D000811162C08AA1882331F0EE89FF8930979F
:1010E00011F088A509958EA1811106C0CE010E943C
:1010F000970A9FA78EA705C0CE010E94AA0A9FA7A4
:101100008EA7CE010E94B20ACE010E94920A1CA2B2
:101110008EA59FA50B978D34924098F58EA18111D5
:1011200017C08FA181112FC08F8D882359F02DE812
:1011300037E040E064E670E0CE010E94840A81E07E
:101140008DA303C0CE010E9460078EA1882309F100
:1011500080911802882361F081E00E94FB00E091F9
:101160001302F0911402309761F088A5099509C027
:1011700081E00E94FB00EA89FB89309711F088A585
:1011800009958FA181111FA28EA1882329F01EA28B
:1011900003C08FA18111F7CFDF91CF910895CF9335
:1011A00080911D02882391F0C0E0EC2FF0E0EE0F5B
:1011B000FF1FE25EFD4F80819181009711F00E9438
:1011C0003608CF5F80911D02C81778F3CF9108953C
:1011D000CF93DF93EC0118A21DA21EA28FA188233A
:1011E00089F1CE010E94AE07CE010E94B7078A8D19
:1011F000811128C08E8D811104C080911502882331
:1012000009F12CE539E040E066E470E0CE010E948F
:10121000840A80911802882361F081E00E94FB001B
:10122000E0910F02F0911002309761F088A50995C6
:1012300009C081E00E94FB00EC89FD89309711F024
:1012400088A509958CA18823A1F1CE010E94AE0743
:10125000CE010E94B7078A8D81112BC08D8D81111F
:1012600004C080911602882321F11CA281E08FA383
:101270002CE539E040E062E370E0CE010E94840A90
:1012800080911802882361F081E00E94FB00E091C8
:101290001102F0911202309761F088A5099509C0FA
:1012A00081E00E94FB00E889F989309711F088A558
:1012B0000995DF91CF910895CF93DF9390911D020F
:1012C0009923C1F0D82FC0E0EC2FF0E0EE0FFF1F04
:1012D000E25EFD4F0190F081E02D93A59D1305C0C6
:1012E000309719F0CF010E94E808CF5F90911D025E
:1012F000C91750F3DF91CF9108951F920F920FB647
:101300000F9211242F933F934F935F936F937F938B
:101310008F939F93AF93BF93EF93FF9383B1E9E1D3
:10132000F2E0808386B1818389B182830E94F800D4
:1013300080E00E94FB000E94CF08FF91EF91BF91D7
:10134000AF919F918F917F916F915F914F913F915D
:101350002F910F900FBE0F901F9018951F920F9214
:101360000FB60F9211242F933F934F935F936F9378
:101370007F938F939F93AF93BF93EF93FF930E94BD
:10138000F80080E00E94FB000E94CF08FF91EF91DF
:10139000BF91AF919F918F917F916F915F914F918D
:1013A0003F912F910F900FBE0F901F9018951F9295
:1013B0000F920FB60F9211242F933F934F935F9389
:1013C0006F937F938F939F93AF93BF93EF93FF930D
:1013D00083B1E9E1F2E0808386B1818389B18283C0
:1013E0000E94F80080E00E94FB000E94CF08FF915D
:1013F000EF91BF91AF919F918F917F916F915F918D
:101400004F913F912F910F900FBE0F901F90189505
:101410001F920F920FB60F9211242F933F934F9369
:101420005F936F937F938F939F93AF93BF93EF934C
:10143000FF9383B1E9E1F2E0808386B1818389B1D2
:1014400082830E94F80080E00E94FB000E94CF0887
:10145000FF91EF91BF91AF919F918F917F916F918C
:101460005F914F913F912F910F900FBE0F901F9062
:1014700018951F920F920FB60F9211242F933F933E
:101480004F935F936F937F938F939F93AF93BF938C
:10149000EF93FF9383B1E9E1F2E0808386B181832A
:1014A00089B182830E94F80080E00E94FB000E94C4
:1014B000CF08FF91EF91BF91AF919F918F917F9155
:1014C0006F915F914F913F912F910F900FBE0F90B1
:1014D0001F90189560E47FE181E00E94100181E097
:1014E00080932A020895DC0190912A02E92FF0E00E
:1014F000EE0FFF1FED5CFD4FB183A08315969C930B
:101500009F5F90932A020895FC0171836083738327
:1015100062833587248781E08387448380E00E944B
:10152000FB000895FC011386118210820895FC01CE
:101530008281938120813181821B930B0895FC016C
:101540007783668381E082877187608780E00E946D
:10155000FB000895FC018085918526813781821BDF
:10156000930B0895FC011782168212860895CF937B
:10157000DF93EC018B858823E1F0888199810097C6
:1015800029F0019799838883892B99F48C81813084
:1015900029F48A819B819983888305C0811103C0C6
:1015A0001B8619821882EC85FD85309711F08D819C
:1015B00009958A85882351F08E819F81009729F0B3
:1015C00001979F838E83892B09F41A86DF91CF912F
:1015D0000895CF9380912A02882391F0C0E0EC2FE8
:1015E000F0E0EE0FFF1FED5CFD4F808191810097D1
:1015F00011F00E94B70ACF5F80912A02C81778F3D2
:10160000CF910895FC01858108951F920F920FB626
:101610000F9211242F933F934F935F936F937F9378
:101620008F939F93AF93BF93EF93FF930E941C02FE
:1016300020912B0230912C0240912D0250912E02CC
:1016400060912F02709130028091310290913202AC
:10165000A1E00E94AE0D20932B0230932C02409308
:101660002D0250932E0260932F02709330028093CC
:101670003102909332020E94E90AFF91EF91BF91EB
:10168000AF919F918F917F916F915F914F913F911A
:101690002F910F900FBE0F901F90189591E090938F
:1016A000BD028093BE0280E00E94FB00089581E0AD
:1016B0008093BB0280E00E94FB00089581E080934C
:1016C000BC025A980E94FB00089580E090E00E94BE
:1016D000F80168EE73E082E00E9410010E940101AF
:1016E00041E062E082E00E94700141E066E080E05B
:1016F0000E9470012E9A0895CF93DF93CDB7DEB785
:1017000029970FB6F894DEBF0FBECDBF0E94650BC0
:101710002FEF84E39CE0215080409040E1F700C02F
:1017200000008AE991E00E94280378941092BC029C
:1017300020E041E061E0CE0101960E94BB0602EC90
:101740001AEB2AEB3AEB4AEE50E060E070E0CE0193
:1017500001960E940807E12C2AEB3AEB4AEE50E092
:1017600060E070E0CE0101960E9422070E946A0AA2
:101770008DEA92E00E94730A8FE992E00E94730A58
:101780002EE53BE040E064E670E08DEA92E00E94E6
:10179000840A0E9443072FE632E040E060E0C9017E
:1017A0000E94DB0767E57BE08FE692E00E944C0732
:1017B0006EE47BE08FE692E00E94560785E991E0B7
:1017C0000E94280381E00E94FB00CE0101960E9446
:1017D0006004882321F0CE0101960E941806CE01F4
:1017E00001960E945204882321F0CE0101960E94A6
:1017F0003E07CE0101960E945904882321F0CE01B4
:1018000001960E94FE058091BD02882309F46CC0F8
:101810001092BD028DE591E00E9441032091BE022D
:1018200030E040E050E060E070E080E090E00E9456
:101830008C0261E2CE0101960E94CD061092BC029C
:101840002EE53BE040E062E370E08FE992E00E9429
:10185000840ACE0101960E945904803209F4D8C04E
:101860008091BC028111D4C0F4CF5A9ACE01019666
:101870000E94FE052EE53BE040E062E370E08DEA69
:1018800092E00E94840A8FE992E00E94920A80E727
:1018900091E00E94410306C01092BC0285E891E0ED
:1018A0000E944103CE0101960E946004882321F02A
:1018B000CE0101960E941806CE0101960E945204A4
:1018C000882321F0CE0101960E943E07CE010196A9
:1018D0000E945904882321F0CE0101960E94FE0542
:1018E000CE0101960E9403048091BB02882309F473
:1018F0006CC01092BB028FE891E00E9441032091DE
:10190000BE0230E040E050E060E070E080E090E057
:101910000E948C0260E2CE0101960E94CD061092D8
:10192000BC022EE53BE040E062E370E08FE992E02C
:101930000E94840ACE0101960E945904803209F463
:101940006FC08091BC0281116BC0F4CF5A9ACE0156
:1019500001960E94FE052EE53BE040E062E370E068
:101960008DEA92E00E94840A8FE992E00E94920A36
:1019700080E791E00E94410306C01092BC0285E816
:1019800091E00E944103CE0101960E9460048823E9
:1019900021F0CE0101960E941806CE0101960E9408
:1019A0005204882321F0CE0101960E943E07CE0109
:1019B00001960E945904882321F0CE0101960E94CD
:1019C000FE05CE0101960E9403040E94FE008823BA
:1019D00009F419CF8FE991E00E94410383B7817F19
:1019E000846083BF83B7816083BF78940E94F400D2
:1019F000409883B7816083BF889583B78E7F83BF0C
:101A0000409A8FE39CE90197F1F700C00000FBCEFC
:101A1000CE0101960E945904803209F03DCF25CFB6
:101A2000CE0101960E945904803209F0A6CF8ECFD4
:101A3000689401C0E8948F929F92CF93DF930E94A5
:101A4000260DDF91CF919F908F900895882499243F
:101A5000F401E401B0E49F93AA279A158B049C0437
:101A6000ED05FE05CF05D007A10798F4AD2FDC2FBB
:101A7000CF2FFE2FE92D982C892E982F872F762F88
:101A8000652F542F432F322F2227B85031F7BF91A3
:101A900027C01B2EBF91BB27220F331F441F551F8A
:101AA000661F771F881F991F881C991CEE1FFF1F38
:101AB000CC1FDD1FAA1FBB1F8A149B04EC05FD056C
:101AC000CE05DF05A007B10748F08A189B08EC098E
:101AD000FD09CE09DF09A00BB10B21601A94E1F6D4
:101AE0002EF49401AF01BE01CD01000C08950F93B7
:101AF000083090F0982F872F762F652F542F432F83
:101B0000322F22270850F4CF220F331F441F551FB6
:101B1000661F771F881F991F0A95B2F70F910895C6
:101B200097FB10F8169400080F93083098F00850AF
:101B3000232F342F452F562F672F782F892F902D45
:101B4000F4CF059497958795779567955795479521
:101B5000379527950A95AAF70F9108950024A7FDB8
:101B600000942A0F301D401D501D601D701D801DEA
:101B7000901D08952A153B054C055D056E057F05F2
:101B80008007910708950024A7FD00942A173005C7
:101B90004005500560057005800590050895F8948E
:021BA000FFCF75
:101BA20020436F6E6669673A2000204649464F20FF
:101BB2005374617475733A2000205458204F627335
:101BC200657276653A200020466561747572653AE1
:101BD2002000204D696C6C69733A20005370656572
:101BE20064203D2000422F7320002044726F7073E6
:101BF200203D20005061636B657473200053656E55
:101C0200736F72207472696767657265643A200047
:101C12005061796C6F6164207472616E736D697466
:101C22007465642E0054696D6564206F7574005389
:101C3200656E736F72204E6F726D616C3A20005345
:0C1C42006C656570696E672E2E2E000028
:00000001FF
